:020000040800F2
:10000000580500200101000897140008D9100008C5
:1000100095140008990100084D1700080000000021
:10002000000000000000000000000000BB140008F9
:100030009B01000800000000B9140008BD1400086E
:100040001B0100081B0100081B0100081B01000820
:100050001B0100081B0100081B0100081B01000810
:100060001B0100081B0100081B0100081B01000800
:100070001B0100081B0100081B0100081B010008F0
:100080001B0100081B0100081B0100081B010008E0
:100090001B0100081B0100081B0100081B010008D0
:1000A0001B0100081B0100081B0100081B010008C0
:1000B0001B0100084D1500081B0100081B0100086A
:1000C0001B0100081B0100081B0100081B010008A0
:1000D0001B0100081B0100081B0100081B01000890
:1000E0001B0100081B0100081B010008DFF80CD0F1
:1000F00000F040F800480047FD19000858050020AE
:100100000648804706480047FEE7FEE7FEE7FEE7B1
:10011000FEE7FEE7FEE7FEE7FEE7FEE7051500085F
:10012000ED000008D2B201E000F8012B491EFBD21D
:1001300070470022F6E710B513460A4604461946F2
:10014000FFF7F0FF204610BD30B50B4601460020FA
:100150002022012409E021FA02F59D4205D303FA89
:1001600002F5491B04FA02F52844151EA2F101020A
:10017000F1DC30BD064C074D06E0E06840F00103BD
:1001800094E8070098471034AC42F6D3FFF7B2FF6B
:10019000F01D0008101E0008FEE7704770B5044609
:1001A00000F0F2F80546601C02D0044800780444D0
:1001B00000F0EAF8401BA042FAD370BD080000200E
:1001C0002DE9F84FDFF890A100220AF1040B144644
:1001D00001274FF00F090BF1040E00BF0B6807FA5F
:1001E00004F52B40AB4274D1DFF870C14E68A6EB2A
:1001F0000C0866452BD00DDC032E34D005DC36B35D
:10020000012E19D0022E2FD11BE0112E16D0122E46
:100210002AD119E0B8F5881F19D006DCB8F5803F5F
:1002200015D0B8F5801F1FD111E0B8F5001F0ED012
:10023000B8F5041F18D10AE0CA6815E0CA68121D93
:1002400012E0CA6808320FE0CA680C320CE08A6813
:100250002AB1012A4FF0080203D0456104E00422CC
:1002600002E0056100E00022FF2B01D8064601E014
:1002700000F104064FEA840501D9A5F12005D6F85E
:1002800000C009FA05F82CEA080C02FA05F54CEA58
:10029000050CC6F800C04D68ED0057D5304DAE696D
:1002A00046F00106AE61AD6924F0030605F00105D4
:1002B00000952C4D06EB050CDCF80850A6074FEA1C
:1002C000167809FA08F6B543274EB04202D1002647
:1002D00010E03BE0254EB04201D101260AE0244E59
:1002E000B04201D1022605E0224EB04201D10326E0
:1002F00000E0042606FA08F62E43CCF808604D68A4
:10030000DAF80060ED03554601D51E4300E09E4338
:100310002E604D68DBF80060AD035D4601D51E43DD
:1003200000E09E432E604D68DEF80060ED027546E9
:1003300001D51E4300E09E432E604D68AD020E4D78
:100340002E6801D51E4300E09E432E60641C102CD5
:10035000FFF444AFBDE8F88F000401400000111025
:10036000001002400000014000080140000C014064
:1003700000100140001401400C0401400AB1016169
:1003800070470904FBE700000148806870470000DF
:100390000800002070B504001BD094F83D00002533
:1003A00020B984F83C50204600F030F9242084F82D
:1003B0003D002068016821F00101016000F0A0FA11
:1003C000404A6168914201D83F4900E03F49884274
:1003D00001D2012070BD3E492368B0FBF1F15960A4
:1003E0006368934206D94FF4967359434FF47A7376
:1003F000B1FBF3F12368491C19626168914210D87E
:100400004900401EB0FBF1F2521CC2F30B02042A59
:1004100001D2042022E0B0FBF1F0401CC0F30B003D
:100420001CE0A368CBB301EBC10202EB0116421E34
:10043000B2FBF6F2521C42F48042120536D06BB386
:1004400001EBC10202EB0111401EB0FBF1F0401CB8
:10045000C0F30B0040F4804040F400402168C861C4
:10046000D4E90701084321680860D4E90310084370
:1004700021688860D4E9050108432168C8602068C4
:10048000016841F0010101602564202084F83D00ED
:10049000256384F83E50002070BD00E008E001EBC9
:1004A0004106421EB2FBF6F2521CC6E70120D5E718
:1004B00001EB4101401EB0FBF1F0401CC0F30B000A
:1004C000CAE70000A086010080841E0000093D00EC
:1004D00040420F002DE9F84F1F4690468A460446D9
:1004E000DDF82890FFF750FF064694F83D002028DD
:1004F0007ED11923012243492046009600F073FE65
:1005000000287DD194F83C00012879D0012084F89E
:100510003C0020680168C90703D1016841F001016E
:1005200001602068016821F400610160212084F8E5
:100530003D00102084F83E0000252564C4F8248086
:1005400067853148E062608D208533464A465146D2
:10055000204600F0D7FD28B1206C84F83C500428D8
:100560004CD00DE0206841698069009030E032464F
:100570004946204600F0ACFE28B1206C042838D053
:100580000320BDE8F88F606A411C61622168007831
:100590000861608D401E6085208D401E80B22085E0
:1005A00021684A69D24352070BD450B1606A421C99
:1005B000626200780861608D401E6085208D401E5B
:1005C000208532464946204600F0E6FD0028D4D179
:1005D000208D0028CBD154F83D0B016841F4007107
:1005E0000160202004F81E09E57765770020C8E740
:1005F00006E02068016841F4007101600120C0E755
:100600000220BEE7020010000000FFFF10B586B018
:100610000021009101910291039100680F498842E5
:100620001AD10F4CA06940F00800A061A06969468A
:1006300000F008000490C0200090122001900320D8
:1006400003900848FFF7BCFDE06940F40010E0614A
:10065000E06900F40010049006B010BD00540040A2
:1006600000100240000C01400248816802781144E9
:100670008160704708000020074810B5016841F00C
:1006800010010160032000F073F8002000F006F86C
:1006900000F024F8002010BD0020024070B50D4D80
:1006A00004464FF47A712878B1FBF0F00A490968E2
:1006B000B1FBF0F000F0FCFA48B9102C07D2002290
:1006C0002146501E00F034F800206C6070BD0120FF
:1006D00070BD000008000020140000200C4808B580
:1006E000816941F001018161816901F0010100919D
:1006F000C16941F08051C161C06900F08050009033
:100700000448416821F0E06141F00071416008BD9A
:10071000001002400000014000F01F020121914042
:100720004009800000F1E020C0F80011704700008F
:10073000F0B40E4B1B680C46C3F30223C3F107054C
:10074000042D00D90425191D072901D2002300E03A
:10075000DB1E012606FA05F1491E214099409E4004
:10076000761E16403143F0BC00F096BE0CED00E062
:10077000064900F0070208684FF6FF03184040EAF8
:100780000220034A10430860704700000CED00E0AF
:100790000000FA052DE9F047DFF8548105460E46C2
:1007A000D8F8000000F00700B0420CD2D8F80010D2
:1007B00021F007013143C8F80010D8F8000000F01C
:1007C0000700B0426FD128684A4C810712D5400714
:1007D00003D5606840F4E06060602878000703D5C6
:1007E000606840F4605060606068A96820F0F000C4
:1007F000084360602878C00744D06868012816D094
:100800002168022816D0890700294CDA616821F096
:10081000030101436160FFF7B7FD6968074641F2D4
:10082000883001290ED00229814618D026E021689F
:100830008903E9E78901E7E7FFF7A6FDC11B494501
:1008400001D918E081466068C0F381000128F3D126
:1008500018E000BFFFF798FDC11B49450BD8606841
:10086000C0F381000228F5D10CE000BFFFF78CFD3A
:10087000C11B494502D90320BDE8F087606810F02C
:100880000C0FF3D1D8F80010404601F00701B14237
:100890000BD9016821F0070131430160006800F0C5
:1008A0000700B04201D00120E6E72878400705D5CF
:1008B0006068E96820F4E060084360602878000719
:1008C00006D56068296920F4605040EAC100606084
:1008D00000F036F86168084AC1F30311515CC84062
:1008E000064908600020FFF7D9FE0020C4E7000099
:1008F0000020024000100240D81D00081400002013
:100900000448054900684968044AC1F30221515C62
:10091000C84070471400002000100240E81D000885
:100920000448054900684968044AC1F3C221515C82
:10093000C84070471400002000100240E81D000865
:1009400012A185B00FC98DE80F0014A0144A0068E9
:1009500004905168134801F00C03042B10D0082BAD
:100960000ED1C1F38343C9031DF803000AD55168B2
:1009700004AAC1F34041515C0A4A5043B0FBF1F074
:1009800005B0704708494843FAE700000203040530
:10099000060708090A0B0C0D0E0F101001020000CB
:1009A0000010024000127A0000093D002DE9F84FC6
:1009B00004460078B94DC00748D06868C0F381008C
:1009C000012807D06868C0F38100022809D168684F
:1009D000C00306D52868800338D5606800286FD02A
:1009E00034E06068B0F5803F0BD010B1B0F5A02FB7
:1009F00011D0286820F480302860286820F48020F6
:100A000002E0286840F480302860606888B1FFF711
:100A1000BBFC064609E0286840F480202860F0E727
:100A2000FFF7B2FC801B642875D828688003F7D5CF
:100A30000CE0FFF7A9FC064605E000BFFFF7A4FCA9
:100A4000801B6428F0D828688003F7D42078944E5F
:100A500080074FF001094FF000083BD5686810F09F
:100A60000C0F07D06868C0F38100022809D16868BC
:100A7000C00306D42868800714D5206901281FD137
:100A800010E02069B0B1C6F80090FFF77DFC074682
:100A900005E000BFFFF778FCC01B0228C4D8286817
:100AA0008007F7D52868616920F0F80040EAC100A6
:100AB00028600FE0C6F80080FFF766FC074606E0F6
:100AC000E9E000BFFFF760FCC01B022823D82868BC
:100AD0008007F7D4207800072CD57248A169D9B1D6
:100AE000C0F80090FFF750FC074604E0FFF74CFC0D
:100AF000C01B02280FD8686A8007F7D56A484FF4F0
:100B0000FA510068B0FBF1F0009000BF0098411E60
:100B10000091FAD20EE080E0C0F80080FFF734FCCC
:100B2000074604E0FFF730FCC01B022875D8686A4E
:100B30008007F7D42078400760D5E8690027C00017
:100B400008D4E86940F08050E861E869012700F0C6
:100B50008050009055480168C90513D40168834648
:100B600041F480710160FFF70FFC824606E000BF90
:100B7000FFF70AFCA0EB0A0064284ED8DBF800005F
:100B8000C005F5D5E06801280AD008B1052813D0C2
:100B9000286A20F001002862286A20F0040002E0A0
:100BA000286A40F001002862E06841F2883B98B171
:100BB000FFF7EAFB82460BE0286A40F00400286257
:100BC000EEE700BFFFF7E0FBA0EB0A0159455AD85A
:100BD000286A8007F6D50CE0FFF7D6FB824605E0D1
:100BE000FFF7D2FBA0EB0A0159454CD8286A8007D1
:100BF000F6D41FB1E86920F08050E861E06988B35D
:100C00006968C1F38101022945D00228C6F86080D5
:100C100004D0FFF7B9FB044638E034E0FFF7B4FB3B
:100C2000074604E0FFF7B0FBC01B02282BD828685A
:100C30008001F7D4206AB0F5803F05D16868A168CB
:100C400020F4003008436860D4E90801084369686B
:100C500021F4741108436860C6F86090FFF794FBB4
:100C6000044606E015E000BFFFF78EFB001B0228DC
:100C700009D828688001F7D50BE000BFFFF784FB97
:100C8000001B022802D90320BDE8F88F28688001E4
:100C9000F4D40020F8E70120F6E70000001002403D
:100CA00000004242800442421400002000700040D4
:100CB00010B5401EB0F1807F01D3012010BD4FF070
:100CC000E02460610F21601700F0E6FB0020A061C6
:100CD00007202061002010BD7047704730B590F8A4
:100CE0003C20012A20D0012280F83C20022380F8F9
:100CF0003D3003685C6824F070045C6003685C68E5
:100D00000D682C435C6003689C6824F080049C6040
:100D100003689C6849680C439C6080F83D20002172
:100D200080F83C10084630BD022030BD2DE9F0416E
:100D30000D46040003D094F83D0018B108E00120EE
:100D4000BDE8F081002084F83C00204600F03AF82D
:100D5000022084F83D002068816821F0070181604D
:100D6000211D206800F0F8FB226890689169166ADE
:100D70002B68AF69034340F20330814341EA072106
:100D8000A868EF6908434FF6FC418843E96840EAE8
:100D90000720014328692F6A000140EA0730084311
:100DA00069686D6926F0AA0646EA0515294393602D
:100DB0002268906120680162012084F83D000020D3
:100DC000BEE7000000B585B00021009101910291BD
:100DD000039102681F492048B2F1804F21D01F4B78
:100DE0009A421CD1CA6942F00202CA61CA6902F081
:100DF000020204928A6942F004028A61896901F060
:100E000004010491C02100916946FFF7D9F900223D
:100E100011461D20FFF78CFC1D20FFF77DFC05B05F
:100E200000BDCA6942F00102CA61CA6902F001024A
:100E300004928A6942F004028A61896901F004011E
:100E4000049103210091012102916946FFF7B8F94D
:100E5000E5E70000001002400008014000040040E7
:100E600010B50446006891B1042904D00122002184
:100E700000F0A8FB206801225FF0040100F0A2FB53
:100E80002068016841F001010160002010BD0122CD
:100E90000021F3E7704770B50446006801694FF020
:100EA0000005C943890715D4C168C943890711D40E
:100EB000E91E0161012020772068806980072046B3
:100EC00002D0FFF7E7FF04E000F098F8204600F0BA
:100ED00096F8257720680169C943490717D4C16886
:100EE000C943490713D46FF0040101610220207740
:100EF0002068806910F4407F204602D0FFF7CAFFC7
:100F000004E000F07BF8204600F079F825772068AF
:100F10000169C943090716D4C168C943090712D436
:100F20006FF008010161042020772068C069800704
:100F3000204602D0FFF7AEFF04E000F05FF8204645
:100F400000F05DF8257720680169C943C90617D408
:100F5000C168C943C90613D46FF0100101610820AC
:100F600020772068C06910F4407F204602D0FFF748
:100F700091FF04E000F042F8204600F040F82577A9
:100F800020680169C943C90708D1C168C943C907B5
:100F900004D1891E0161204600F032F82068016901
:100FA000C943090609D4C168C943090605D46FF0CD
:100FB000800101612046FFF78FFE20680169C94367
:100FC000490609D4C168C943490605D46FF04001F8
:100FD0000161204600F015F820680169C9438906BF
:100FE0000BD4C168C943890607D46FF020010161A1
:100FF0002046BDE87040FFF770BE70BD7047704777
:101000007047704770B5040004D094F8390000258B
:1010100010B106E0012070BD84F83850204600F081
:1010200023F8242084F839002068C16821F4005195
:10103000C160204600F0D2FA2068016921F4904195
:1010400001612068416921F02A0141612068C1687D
:1010500041F40051C160E563202084F8390084F830
:101060003A00002070BD000030B585B00024009427
:1010700001940294039400681449884223D11448CF
:10108000C16941F40031C161C16901F400310491C9
:10109000816941F00401816180690E4D00F0040016
:1010A00004900420009002200190032003906946E0
:1010B0002846FFF785F80820CDE900046946284650
:1010C0000294FFF77DF805B030BD000000440040F9
:1010D0000010024000080140FEE701684A69D2435F
:1010E00052050CD46FF480624A610421016400212E
:1010F00040F8301F20224273017301207047002006
:1011000070470000F8B50446C06A1E460D461746F3
:10111000042807D0012805D010F5803F02D0206BAD
:10112000122804D12068016841F4807101601346DF
:1011300000224FF001112046009600F054F8A0B9AB
:101140002069B0F5804F12D00620216800EAD51042
:1011500040F0F000086133463A460E49204600F060
:1011600073F838B1206C042811D00320F8BD05F0C5
:10117000FE0000E0E8B221680861064933463A46BD
:10118000891F204600F060F80028EBD1F8BD01204F
:10119000F8BD00000800010070B516460D46044673
:1011A0001AE02046FFF799FF08B1012070BD681CC6
:1011B00012D025B1FFF7E8F8801BA8420CD954F8EB
:1011C000400F40F0200044F810090020206020214A
:1011D00061732073032070BD20684069C0434007DD
:1011E000DFD4002070BD2DE9F0471E4690460D4625
:1011F0000446C1F30747DDF8209012E0701C10D0C0
:101200002EB1FFF7C1F8A0EB0900B04209D90020C8
:1012100044F8300F20216173A07320730320BDE8D0
:10122000F0872068012F0AD0806925EA00000004B9
:10123000000C06D000214145E0D00020EFE74069D6
:10124000F3E70121F7E700002DE9F0479A469146C0
:101250000D46044600264FF02008C1F307472AE058
:1012600020684069C043400512D42068016841F4F9
:101270000071016021686FF480604861042020647F
:10128000266384F83D8084F83C600120BDE8F08747
:10129000B9F1FF3F0FD0B9F1000F05D0FFF774F897
:1012A000A0EB0A01494506D944F8306F84F80D8057
:1012B00026730320EAE72068012F07D0D0F8180032
:1012C00025EA00000004000CE0D0C9E74069F7E718
:1012D00070B516460D4604461AE02046FFF7FDFE9F
:1012E00008B1012070BD681C12D025B1FFF74CF881
:1012F000801BA8420CD954F8400F40F0200044F85D
:10130000100900202060202161732073032070BD2C
:1013100020684069C0430006DFD4002070BD000093
:101320002DE9F04186B000242848009401940294ED
:101330000394816941F010018161816901F010011C
:101340000491816941F020018161816901F02001EE
:101350000491816941F004018161816901F0040116
:101360000491816941F0080181618069184F00F0A2
:1013700008004FF400550490002229463846FEF735
:10138000FDFFDFF85080002201214046FEF7F6FF06
:101390000095022601250396CDE901546946384699
:1013A000FEF70EFF2020CDE9000469460A480294AA
:1013B000FEF706FF03960095CDE9015469464046C5
:1013C000FEF7FEFE06B0BDE8F0810000001002400E
:1013D00000100140000C01400008014010B58CB025
:1013E00024216846FEF7A5FE0024124809944FF018
:1013F00080410A94C0E900144FF6FF71C0E9024130
:10140000046184610320CDE900040120CDE90204D8
:101410000494CDE905400794694606480894FFF70F
:1014200085FC099409A903480A94FFF757FC0CB0FE
:1014300010BD00009400002010B58CB02421684637
:10144000FEF777FE00241248099410490A94C0E977
:1014500000140421C0E90241046184610320CDE944
:1014600000040120CDE902040494CDE9054007946D
:10147000694607480894FFF759FC099409A90448EC
:101480000A94FFF72BFC0CB010BD000000040040D4
:10149000D4000020FEE770470907090E002806DA8D
:1014A00000F00F0000F1E02080F8141D704700F1FB
:1014B000E02080F80014704770477047FFF7D4B8F9
:1014C00010B590B028216846FEF733FE14210AA813
:1014D000FEF72FFE0220009001200490102000242F
:1014E000059007946846FFF761FA0F20CDE90A04DA
:1014F0000C940D9400210AA80E94FFF74BF910B03C
:1015000010BD00000D48016841F001010160416813
:101510000B4A1140416001680A4A114001600168AC
:1015200021F480210160416821F4FE0141604FF403
:101530001F0181600449C003086070470010024029
:101540000000FFF8FFFFF6FE08ED00E00148FFF79E
:10155000A2BC0000D4000020F0B50268164B174C66
:10156000174D4FF08047984205D0B84203D0A042B3
:1015700001D0A84203D122F070064A683243984253
:1015800005D0B84203D0A04201D0A84203D122F432
:101590004074CA68224322F080044A6922430260F0
:1015A0008A68C2620A688262984201D1096901634D
:1015B00001214161F0BD0000002C01400004004009
:1015C0000008004010B50123046A8B409C4304626C
:1015D000036A8A401343036210BD00002DE9F04105
:1015E000044600680169E26821F440511143016139
:1015F0002169A0680843616908432168CA6841F20B
:101600000C639A430243CA6020684169A26921F4CD
:101610004071114341614C4920686425322688425B
:101620003CD1FFF77DF900EBC00101EB00106168D0
:101630008900B0FBF1F7FFF773F900EBC00101EB94
:1016400000106168B0468900B0FBF1F0B0FBF5F026
:101650006FF01801484307EB800106EB0110B0FB67
:10166000F5F000F0F006FFF75BF900EBC00101EBCD
:10167000001061688900B0FBF1F0B0FBF5F006EBFB
:101680000016FFF74DF900EBC00101EB0010616897
:101690008900B0FBF1F7FFF743F93BE0FFF730F9C2
:1016A00000EBC00101EB001061688900B0FBF1F7AD
:1016B000FFF726F900EBC00101EB00106168B046AE
:1016C0008900B0FBF1F0B0FBF5F06FF01801484372
:1016D00007EB800106EB0110B0FBF5F000F0F0061F
:1016E000FFF70EF900EBC00101EB00106168890003
:1016F000B0FBF1F0B0FBF5F006EB0016FFF700F9D8
:1017000000EBC00101EB001061688900B0FBF1F74C
:10171000FFF7F6F800EBC00101EB001061688900EB
:10172000B0FBF1F0B0FBF5F06FF01801484307EBA8
:10173000800108EB0110B0FBF5F0216800F00F000C
:1017400030448860BDE8F08100380140FEE70000C9
:101750000FB4084B10B504A902AA039800F01CF8B6
:10176000044602A9002000F0C1F8204610BC5DF834
:1017700014FB0000ED18000802E008C8121F08C1A1
:10178000002AFAD170477047002001E001C1121F02
:10179000002AFBD1704700002DE9FF4F89B09B461E
:1017A0000446002506E025280BD05A460B999047A1
:1017B000641C6D1C20780028F5D10DB02846BDE8CA
:1017C000F08F0027B8460122474900E0074314F88C
:1017D000013F203B02FA03F00842F7D120782E287F
:1017E00019D114F8010F47F004072A280ED06FF022
:1017F0002F022078A0F1300109290CD808EB8801CC
:1018000002EB410100EB0108641CF2E70A98641C3A
:1018100050F8048B0A9020780028CED0642808D095
:10182000692806D075281ED05A460B9990476D1C22
:1018300058E00A994FF00A0901C90A91002802DA12
:1018400040422D2102E0390504D52B218DF82010CE
:10185000012103E0F90704D02021F7E78A4608AE0A
:101860000DE00021FAE70A994FF00A0901C90A912F
:10187000F7E74946FEF768FC303106F8011D0028FD
:10188000F7D1ADEB060000F12009780701D44FF045
:101890000108C84502DDA8EB090000E000208046F1
:1018A000002706E008A85A46C05D0B9990476D1CBA
:1018B0007F1C5745F6DB04E030205A460B999047D1
:1018C0006D1CB8F10001A8F10108F5DC05E016F87F
:1018D000010B5A460B9990476D1CB9F10001A9F113
:1018E0000109F4DC641C65E7092801000A68531C3F
:1018F0000B6010707047012805D04031C8B240F02D
:10190000800000F031B88031C8B2FAE710B533205A
:1019100000F02AF8322000F027F83220FEF73EFCD3
:10192000282000F021F83220FEF738FC012000F0DA
:101930001BF83220FEF732FC062000F015F83220AA
:10194000FEF72CFC0C2000F00FF83220FEF726FCEE
:10195000022000F009F83220FEF720FCBDE810401C
:10196000802000F001B800001CB500F0F00141F04B
:101970000C028DF8042041F0080100018DF80510DB
:1019800040F00C018DF8061040F008008DF80700BB
:1019900064200090042301AA4E210248FEF79AFD1C
:1019A0001CBD0000400000201CB500F0F00141F01B
:1019B0000D028DF8042041F0090100018DF8051099
:1019C00040F00D018DF8061040F009008DF8070079
:1019D00064200090042301AA4E210248FEF77AFDFC
:1019E0001CBD00004000002010B5044602E0641C4D
:1019F000FFF7DAFF20780028F9D110BDFEF73CFE92
:101A0000FFF75EFDFFF78CFCFFF716FDFFF7E6FC26
:101A100092489149002401609149C0E901144FF4B2
:101A20008041C0E9034144618461C4610462FEF7FE
:101A3000B1FC8A488B49D43001604FF4E131C0E9F0
:101A400001140C21C460C0E904418461C461FFF742
:101A5000D9FA824818215430FFF702FA7F4818213A
:101A60009430FFF7FDF9FFF751FF00210120FFF748
:101A700042FF7DA0FFF7B8FF6420FEF78FFB002137
:101A80000120FFF738FF6420FEF788FB7AA0FFF7FC
:101A9000ABFF00210120FFF72EFF6420FEF77EFB45
:101AA00079A0FFF7A1FF00210120FFF724FF6420A8
:101AB000FEF774FB74A0FFF797FF00210120FFF7EA
:101AC0001AFF6420FEF76AFB73A0FFF78DFF002169
:101AD0000120FFF710FF6420FEF760FB72A0FFF704
:101AE00083FF00210120FFF706FF6420FEF756FB6D
:101AF00071A0FFF779FF00210120FFF7FCFE6420B1
:101B0000FEF74CFB70A0FFF76FFF00210120FFF7ED
:101B1000F2FE6420FEF742FB6FA0FFF765FF002195
:101B20000120FFF7E8FE6420FEF738FB6EA0FFF708
:101B30005BFF00210120FFF7DEFE6420FEF72EFB95
:101B40006DA0FFF751FF00210120FFF7D4FE6420B4
:101B5000FEF724FB6CA0FFF747FF00210120FFF7F1
:101B6000CAFE6420FEF71AFB6BA0FFF73DFF0021C1
:101B70000120FFF7C0FE6420FEF710FB6AA0FFF70C
:101B800033FF00210120FFF7B6FE6420FEF706FBBD
:101B900069A0FFF729FF00210120FFF7ACFE6420B8
:101BA000FEF7FCFA68A0FFF71FFF00210220FFF7F5
:101BB000A2FE69A0FFF718FF4FF4FA70FEF7EEFAE5
:101BC000694D6A4C2E0728682060716A616001289F
:101BD00014D0022818D0032833D004284FF0000175
:101BE0004FF0010033D0FFF786FE61A0FFF7FCFE47
:101BF00000210220FFF77FFE62A01FE000210120EC
:101C0000FFF779FE64A004E000210120FFF773FED6
:101C100064A0FFF7E9FE00210220FFF76CFE64A03C
:101C2000FFF7E2FE0D4864A128386268FFF790FDD7
:101C300008210220FFF75FFE08482838FFF7D4FE8E
:101C4000C1E700210120FFF756FE5CA0E1E7FFF7A6
:101C500052FE5DA0DDE7000000540040400000207F
:101C6000A086010000440040456C656374726F7388
:101C700070696E6E696E6700206C656374726F7355
:101C800070696E6E696E67002020656374726F7391
:101C900070696E6E696E67002020206374726F73C6
:101CA00070696E6E696E67002020202074726F73F9
:101CB00070696E6E696E67002020202020726F733D
:101CC00070696E6E696E67002020202020202073CE
:101CD00070696E6E696E6700202020202020202011
:101CE00070696E6E696E6700202020202020202001
:101CF00020696E6E696E6700202020202020202041
:101D000020206E6E696E6700202020202020202079
:101D10002020206E696E67002020202020202020B7
:101D200020202020696E67002020202020202020F5
:101D300020202020206E670020202020202020202E
:101D4000202020202020670020202020202020206C
:101D50002020202020202000424D45202D20496EAB
:101D60006F766174696F6E002404004000000020EB
:101D70004E6F6E6520202020202020202020202053
:101D800000000000202020202020202020202020D3
:101D900020202020000000004175746F2052756ED5
:101DA000000000004D616E75616C20202020200035
:101DB00053706565643A20002564000046617374C1
:101DC0002020202020200000536C6F77202020202E
:101DD0002020202000000000000000000000000083
:101DE00001020304060708090000000001020304C1
:101DF000101E0008000000201800000078170008DE
:101E0000281E000818000020400500008817000860
:101E100000000000000000000100000010000000B1
:081E20000000000000A24A04CA
:04000005080000ED02
:00000001FF
