:020000040800F2
:1000000090050020010100082F1C0008311800088D
:100010002D1C000855020008F51E00080000000015
:10002000000000000000000000000000531C000859
:100030005702000800000000511C0008551C000871
:100040001B0100081B0100081B0100081B01000820
:100050001B0100081B0100081B0100081B01000810
:100060001B0100081B0100081B0100081B01000800
:100070001B0100081B0100081B0100081B010008F0
:100080001B0100081B0100081B0100081B010008E0
:100090001B0100081B0100081B0100081B010008D0
:1000A0001B0100081B0100081B0100081B010008C0
:1000B0001B010008F51C00081B0100081B010008BB
:1000C0001B0100081B0100081B0100081B010008A0
:1000D0001B0100081B0100081B0100081B01000890
:1000E0001B0100081B0100081B010008DFF80CD0F1
:1000F00000F040F800480047052400089005002063
:100100000648804706480047FEE7FEE7FEE7FEE7B1
:10011000FEE7FEE7FEE7FEE7FEE7FEE7AD1C0008B0
:10012000ED000008D2B201E000F8012B491EFBD21D
:1001300070470022F6E710B513460A4604461946F2
:10014000FFF7F0FF204610BD30B50B4601460020FA
:100150002022012409E021FA02F59D4205D303FA89
:1001600002F5491B04FA02F52844151EA2F101020A
:10017000F1DC30BD064C074D06E0E06840F00103BD
:1001800094E8070098471034AC42F6D3FFF7B2FF6B
:10019000A8260008C826000870B5044600688168D3
:1001A000C943C9071CD1816821F00101816000F0B9
:1001B0009FFB05460FE000BF00F09AFB401B0228A2
:1001C00009D9A06A40F01000A062E06A40F0010086
:1001D000E062012070BD20688068C043C007EBD09A
:1001E000002070BDF8B500260446009600688168BE
:1001F000C943C90728D0816841F0010181601348D3
:1002000013490068B0FBF1F000E0401E00900028A8
:10021000FBD100F06DFB054611E000BF00F068FB6C
:10022000401B02280BD9A06A40F01000A062E06ACF
:1002300040F00100E06284F824600120F8BD2068ED
:100240008068C043C007E9D10020F8BD1C00002031
:1002500040420F00FEE77047F8B50024009490F884
:1002600024202546012A12D0012280F824204A6841
:100270001F23072A0DD20668776B521E02EB8202FB
:1002800093409F430B6893401F43776319E002201C
:10029000F8BD06680D2A0AD2376BD21F02EB820224
:1002A00093409F430B6893401F43376309E0F76A0D
:1002B0000D3A02EB820293409F430B6893401F4329
:1002C000F7620A68072306680A2A0AD3F7680A3A17
:1002D00002EB420293409F438B6893401F43F760B9
:1002E00008E0376902EB420293409F438B689340DA
:1002F0001F4337610A68102A01D0112A20D1124BFE
:1003000002689A4217D193681B0219D4936843F488
:10031000000393600968102912D10C490C4A09683E
:10032000B1FBF2F101EB8101490000E0491E0091AF
:100330000029FBD104E0816A41F02001816201249F
:1003400080F824502046F8BD002401401C00002005
:1003500040420F000068C06C704700002DE9F0417A
:100360004FF0000704003D467ED0A06A002628B961
:10037000E66284F82460204600F07EF82046FFF70D
:100380000BFFA16AC90600D420B1A06A40F010009A
:10039000A06269E0A16A21F4885141F00201A162E2
:1003A0006268E169E3680A4347EA43010A43A168D6
:1003B0004FF48077B94209D0012907D05FF00001DE
:1003C000D4F814C0BCF1010F02D00AE03946F7E7B7
:1003D000F3B1A36A43F02003A362E36A43F001038D
:1003E000E3622368D3F804C02CF4694C4CEA010C96
:1003F000C3F804C021688B68DFF870C003EA0C03FF
:1004000013438B60A168B9420BD0012909D00CE0DD
:10041000DFF85CC0A3690CEB43330B4343F400618A
:10042000DFE7218A0D05A5F580152168CB6A23F445
:1004300070032B43CB62216889680E4B19409142AF
:1004400008D1E662A16A21F0020141F00101A16236
:10045000BDE8F081A06A20F0020040F01000A06228
:10046000E06A40F00100E0620120F1E7FDF7E1FF02
:1004700000E0FFFFFE0E1FFF00B585B000210091D8
:1004800001910291039100680E49884218D10E48EB
:10049000816941F400718161816901F40071049105
:1004A000816941F0040181618069694600F00400BE
:1004B00004901020009003200190044800F02CF9D3
:1004C00005B000BD002401400010024000080140BA
:1004D0002DE9F84300260D460446009600F008FA80
:1004E000804620688168C90508D5A06A40F02000D0
:1004F000A06284F824600120BDE8F8834168C90542
:1005000003D4C06A10F4700F26D0022000F0F6FB6E
:1005100038490968B1FBF0F72068036936490B4296
:100520004FEA61014FEAA1121BD1C3684FEA611C77
:1005300013EA0C0F15D103690B4221D1C068104298
:100540001ED114201FE0681C06D045B300F0D0F97E
:10055000A0EB0800A84222D8206800688007F2D5E6
:100560002AE003690B4202D1C168114206D0026938
:1005700022490A4206D1C068084203D1542002E051
:10058000292000E0FC204743009813E0681C0ED0AF
:100590002DB100F0ADF9A0EB0800A84207D9A06A80
:1005A00040F00400A06284F824600320A4E70098CF
:1005B000401C0090B842E9D321686FF01200086037
:1005C000A06A40F40070A06220688068C0F34240D6
:1005D00007280CD1E06850B9A06A20F48070A062AE
:1005E000A06AC00403D4A06A40F00100A062002009
:1005F00082E700001C000020244992244992240034
:1006000070B5044690F8240001280DD0012084F82C
:1006100024002046FFF7E6FD02004FF0000005D061
:1006200084F82400104670BD022070BDA16A40F21B
:100630000123994341F48071A1621F4D23681F4932
:10064000AB4218D10E6816F4702F14D0A66A46F487
:100650008016A6620E68760505D5A66A26F40056B1
:1006600046F48056A662A66AF6040AD5E66A26F023
:100670000606E66206E0A66A26F48016A6625E68B2
:10068000E9E7E06284F824006FF002001860206857
:100690008368C3F34243072B05D1A84208D10968F8
:1006A00011F4702F04D0816841F480118160B9E7A2
:1006B000816841F4A001F9E70028014004240140C9
:1006C00010B5044690F82400012807D0012084F8D2
:1006D00024002046FFF760FD10B107E0022010BDA6
:1006E000A16A21F4885141F00101A162002184F83E
:1006F000241010BD70B5044600F0FAF80546601CE1
:1007000002D004480078044400F0F2F8401BA042F4
:10071000FAD370BD100000202DE9F84FDFF890A14A
:1007200000220AF1040B144601274FF00F090BF1C8
:10073000040E00BF0B6807FA04F52B40AB4274D1DE
:10074000DFF870C14E68A6EB0C0866452BD00DDCB7
:10075000032E34D005DC36B3012E19D0022E2FD152
:100760001BE0112E16D0122E2AD119E0B8F5881FE1
:1007700019D006DCB8F5803F15D0B8F5801F1FD121
:1007800011E0B8F5001F0ED0B8F5041F18D10AE02B
:10079000CA6815E0CA68121D12E0CA6808320FE084
:1007A000CA680C320CE08A682AB1012A4FF00802AC
:1007B00003D0456104E0042202E0056100E000226C
:1007C000FF2B01D8064601E000F104064FEA84053C
:1007D00001D9A5F12005D6F800C009FA05F82CEAE0
:1007E000080C02FA05F54CEA050CC6F800C04D6885
:1007F000ED0057D5304DAE6946F00106AE61AD69EA
:1008000024F0030605F0010500952C4D06EB050CC0
:10081000DCF80850A6074FEA167809FA08F6B5433F
:10082000274EB04202D1002610E03BE0254EB042F8
:1008300001D101260AE0244EB04201D1022605E092
:10084000224EB04201D1032600E0042606FA08F643
:100850002E43CCF808604D68DAF80060ED03554689
:1008600001D51E4300E09E432E604D68DBF800601A
:10087000AD035D4601D51E4300E09E432E604D68EA
:10088000DEF80060ED02754601D51E4300E09E4390
:100890002E604D68AD020E4D2E6801D51E4300E05E
:1008A0009E432E60641C102CFFF444AFBDE8F88F0B
:1008B000000401400000111000100240000001403F
:1008C00000080140000C01400010014000140140EC
:1008D0000C0401408068084000D001207047C268C5
:1008E0004A40C26070470AB1016170470904FBE7E2
:1008F00001488068704700001000002070B50400B7
:100900001BD094F83D00002520B984F83C502046C7
:1009100000F030F9242084F83D002068016821F0BF
:100920000101016000F07AFB404A6168914201D800
:100930003F4900E03F49884201D2012070BD3E4955
:100940002368B0FBF1F159606368934206D94FF414
:10095000967359434FF47A73B1FBF3F12368491C42
:1009600019626168914210D84900401EB0FBF1F253
:10097000521CC2F30B02042A01D2042022E0B0FB75
:10098000F1F0401CC0F30B001CE0A368CBB301EBFB
:10099000C10202EB0116421EB2FBF6F2521C42F4F7
:1009A0008042120536D06BB301EBC10202EB01119C
:1009B000401EB0FBF1F0401CC0F30B0040F480403F
:1009C00040F400402168C861D4E907010843216868
:1009D0000860D4E90310084321688860D4E9050160
:1009E00008432168C8602068016841F00101016086
:1009F0002564202084F83D00256384F83E500020C3
:100A000070BD00E008E001EB4106421EB2FBF6F2C9
:100A1000521CC6E70120D5E701EB4101401EB0FBA7
:100A2000F1F0401CC0F30B00CAE70000A0860100F3
:100A300080841E0000093D0040420F002DE9F84F60
:100A40001F4690468A460446DDF82890FFF750FF7F
:100A5000064694F83D0020287ED1192301224349FF
:100A60002046009600F06BFF00287DD194F83C00F2
:100A7000012879D0012084F83C0020680168C9076A
:100A800003D1016841F0010101602068016821F48F
:100A900000610160212084F83D00102084F83E00B0
:100AA00000252564C4F8248067853148E062608DA4
:100AB000208533464A465146204600F0CFFE28B1F5
:100AC000206C84F83C5004284CD00DE0206841692B
:100AD0008069009030E032464946204600F0A4FF8D
:100AE00028B1206C042838D00320BDE8F88F606A54
:100AF000411C6162216800780861608D401E60853C
:100B0000208D401E80B2208521684A69D243520759
:100B10000BD450B1606A421C626200780861608D3B
:100B2000401E6085208D401E208532464946204665
:100B300000F0DEFE0028D4D1208D0028CBD154F85F
:100B40003D0B016841F400710160202004F81E098A
:100B5000E57765770020C8E706E02068016841F482
:100B6000007101600120C0E70220BEE70200100012
:100B70000000FFFF10B586B00021009101910291A5
:100B8000039100680F4988421AD10F4CA06940F0C8
:100B90000800A061A069694600F008000490C02028
:100BA000009012200190032003900848FFF7B4FD45
:100BB000E06940F40010E061E06900F40010049086
:100BC00006B010BD0054004000100240000C01406F
:100BD000024881680278114481607047100000204B
:100BE000074810B5016841F010010160032000F0D2
:100BF00073F8002000F006F800F024F8002010BD83
:100C00000020024070B50D4D04464FF47A712878EB
:100C1000B1FBF0F00A490968B1FBF0F000F0D6FB37
:100C200048B9102C07D200222146501E00F034F89B
:100C300000206C6070BD012070BD0000100000201D
:100C40001C0000200C4808B5816941F00101816158
:100C5000816901F001010091C16941F08051C161D8
:100C6000C06900F0805000900448416821F0E061C4
:100C700041F00071416008BD0010024000000140D9
:100C800000F01F02012191404009800000F1E020A6
:100C9000C0F8001170470000F0B40E4B1B680C4602
:100CA000C3F30223C3F10705042D00D90425191D40
:100CB000072901D2002300E0DB1E012606FA05F118
:100CC000491E214099409E40761E16403143F0BC9B
:100CD00000F0AEBF0CED00E0064900F00702086826
:100CE0004FF6FF03184040EA0220034A1043086011
:100CF000704700000CED00E00000FA0510B529A4D3
:100D000001461DCC86B08DE81D002AA02A4C006843
:100D100004900020012923D002293AD010291DD1A6
:100D200061682268D20119D5C1F38342C9031DF855
:100D3000020009D5616804AAC1F34041515C1F4A11
:100D4000B2FBF1F1484301E01D49484361684902A3
:100D500004D440005FF00301B0FBF1F006B010BD19
:100D6000226AC2F30121012903D1920701D5C803E8
:100D7000F4E7022905D1626A920702D549F640409C
:100D8000ECE70329EAD121688903E7D54FF2244033
:100D9000E4E700F053F96168C1F38131491C49006F
:100DA000DAE7000002030405060708090A0B0C0D28
:100DB0000E0F1010010200000010024000127A0015
:100DC00000093D002DE9F84305460078354CC00781
:100DD00054D0E0690026C00008D4E06940F080509B
:100DE000E061E069012600F0805000902E48016823
:100DF000C90512D40168804641F480710160FFF793
:100E000077FD074605E000BFFFF772FDC01B6428B1
:100E100023D8D8F80000C005F6D5206A10F4407039
:100E200021D0A98801F4407181421CD0206A1F4959
:100E3000012220F440700A6000220A602062C0078C
:100E400011D0FFF755FD074641F2883808E000BF92
:100E5000FFF74EFDC11B414502D90320BDE8F883D1
:100E6000206A8007F4D5206A696820F4407008433E
:100E700020621EB1E06920F08050E0612878800790
:100E800005D56068A96820F4404008436060287870
:100E9000C00605D56068E96820F4800008436060FA
:100EA0000020DBE700100240007000404004424296
:100EB0002DE9F047DFF8548105460E46D8F80000CA
:100EC00000F00700B0420CD2D8F8001021F0070162
:100ED0003143C8F80010D8F8000000F00700B04215
:100EE0006FD128684A4C810712D5400703D5606846
:100EF00040F4E06060602878000703D5606840F443
:100F0000605060606068A96820F0F000084360608D
:100F10002878C00744D06868012816D021680228C4
:100F200016D0890700294CDA616821F003010143DA
:100F30006160FFF7DDFC6968074641F288300129EE
:100F40000ED00229814618D026E021688903E9E7FE
:100F50008901E7E7FFF7CCFCC11B494501D918E03F
:100F600081466068C0F381000128F3D118E000BF1A
:100F7000FFF7BEFCC11B49450BD86068C0F3810078
:100F80000228F5D10CE000BFFFF7B2FCC11B4945B8
:100F900002D90320BDE8F087606810F00C0FF3D190
:100FA000D8F80010404601F00701B1420BD90168A2
:100FB00021F0070131430160006800F00700B042F2
:100FC00001D00120E6E72878400705D56068E96888
:100FD00020F4E060084360602878000706D5606868
:100FE000296920F4605040EAC100606000F036F8E2
:100FF0006168084AC1F30311515CC84006490860A2
:101000000020FFF7FFFD0020C4E7000000200240A1
:1010100000100240902600081C00002004480549EA
:1010200000684968044AC1F30221515CC840704716
:101030001C00002000100240A026000804480549BA
:1010400000684968044AC1F3C221515CC840704736
:101050001C00002000100240A026000812A185B04C
:101060000FC98DE80F0014A0144A0068049051685D
:10107000134801F00C03042B10D0082B0ED1C1F340
:101080008343C9031DF803000AD5516804AAC1F3BC
:101090004041515C0A4A5043B0FBF1F005B0704743
:1010A00008494843FAE70000020304050607080957
:1010B0000A0B0C0D0E0F1010010200000010024070
:1010C00000127A0000093D002DE9F84F044600782F
:1010D000B94DC00748D06868C0F38100012807D027
:1010E0006868C0F38100022809D16868C00306D58A
:1010F0002868800338D5606800286FD034E06068C5
:10110000B0F5803F0BD010B1B0F5A02F11D02868FA
:1011100020F480302860286820F4802002E02868CD
:1011200040F480302860606888B1FFF7E1FB064634
:1011300009E0286840F480202860F0E7FFF7D8FB3A
:10114000801B642875D828688003F7D50CE0FFF76A
:10115000CFFB064605E000BFFFF7CAFB801B6428F3
:10116000F0D828688003F7D42078944E80074FF099
:1011700001094FF000083BD5686810F00C0F07D04C
:101180006868C0F38100022809D16868C00306D4EA
:101190002868800714D5206901281FD110E0206934
:1011A000B0B1C6F80090FFF7A3FB074605E000BF0B
:1011B000FFF79EFBC01B0228C4D828688007F7D51C
:1011C0002868616920F0F80040EAC10028600FE05B
:1011D000C6F80080FFF78CFB074606E0E9E000BF99
:1011E000FFF786FBC01B022823D828688007F7D4A6
:1011F000207800072CD57248A169D9B1C0F80090B9
:10120000FFF776FB074604E0FFF772FBC01B0228DE
:101210000FD8686A8007F7D56A484FF4FA5100681A
:10122000B0FBF1F0009000BF0098411E0091FAD28F
:101230000EE080E0C0F80080FFF75AFB074604E0AC
:10124000FFF756FBC01B022875D8686A8007F7D4E1
:101250002078400760D5E8690027C00008D4E86915
:1012600040F08050E861E869012700F0805000906C
:1012700055480168C90513D40168834641F480715B
:101280000160FFF735FB824606E000BFFFF730FB49
:10129000A0EB0A0064284ED8DBF80000C005F5D5A5
:1012A000E06801280AD008B1052813D0286A20F088
:1012B00001002862286A20F0040002E0286A40F059
:1012C00001002862E06841F2883B98B1FFF710FB0B
:1012D00082460BE0286A40F004002862EEE700BF77
:1012E000FFF706FBA0EB0A0159455AD8286A800788
:1012F000F6D50CE0FFF7FCFA824605E0FFF7F8FAB6
:10130000A0EB0A0159454CD8286A8007F6D41FB1D2
:10131000E86920F08050E861E06988B36968C1F34A
:101320008101022945D00228C6F8608004D0FFF769
:10133000DFFA044638E034E0FFF7DAFA074604E063
:10134000FFF7D6FAC01B02282BD828688001F7D4F3
:10135000206AB0F5803F05D16868A16820F40030AC
:1013600008436860D4E908010843696821F47411EE
:1013700008436860C6F86090FFF7BAFA044606E0D2
:1013800015E000BFFFF7B4FA001B022809D828684F
:101390008001F7D50BE000BFFFF7AAFA001B022877
:1013A00002D90320BDE8F88F28688001F4D400201A
:1013B000F8E70120F6E7000000100240000042427A
:1013C000800442421C0000200070004010B5401E06
:1013D000B0F1807F01D3012010BD4FF0E0246061A7
:1013E0000F21601700F024FC0020A061072020617D
:1013F000002010BD7047704730B590F83C20012A9E
:1014000020D0012280F83C20022380F83D30036880
:101410005C6824F070045C6003685C680D682C43B1
:101420005C6003689C6824F080049C6003689C688E
:1014300049680C439C6080F83D20002180F83C10F6
:10144000084630BD022030BD2DE9F0410D460400B4
:1014500003D094F83D0018B108E00120BDE8F08108
:10146000002084F83C00204600F03AF8022084F87E
:101470003D002068816821F007018160211D2068FE
:1014800000F03EFC226890689169166A2B68AF698B
:10149000034340F20330814341EA0721A868EF6922
:1014A00008434FF6FC418843E96840EA07200143BE
:1014B00028692F6A000140EA0730084369686D69AE
:1014C00026F0AA0646EA0515294393602268906132
:1014D00020680162012084F83D000020BEE7000082
:1014E00030B585B0002500950195029503950268F9
:1014F0002C492D48B2F1804F21D02C4B9A421CD15F
:10150000CA6942F00202CA61CA6902F00202049288
:101510008A6942F004028A61896901F00401049138
:10152000C02100916946FFF7F7F8002211461D20FF
:10153000FFF7B2FB1D20FFF7A3FB05B030BDCA6962
:1015400042F00102CA61CA6902F0010204928A698A
:1015500042F004028A618A6902F0040204928A69F4
:1015600042F008028A618969012401F008010491AE
:101570004FF40041009102946946FFF7CDF808202E
:10158000CDE90005694602940948FFF7C5F8094806
:10159000416821F4407141F0E06141F480714160A3
:1015A000CBE70000001002400008014000040040AA
:1015B000000C01400000014010B50446006891B1E4
:1015C000042904D00122002100F0D0FB2068012270
:1015D0005FF0040100F0CAFB2068016841F00101DE
:1015E0000160002010BD01220021F3E7704770B5B3
:1015F0000446006801694FF00005C943890715D406
:10160000C168C943890711D4E91E0161012020770F
:10161000206880698007204602D0FFF7E7FF04E0DA
:1016200000F098F8204600F096F8257720680169C8
:10163000C943490717D4C168C943490713D46FF098
:1016400004010161022020772068806910F4407F46
:10165000204602D0FFF7CAFF04E000F07BF82046E6
:1016600000F079F8257720680169C943090716D485
:10167000C168C943090712D46FF008010161042051
:1016800020772068C0698007204602D0FFF7AEFFB0
:1016900004E000F05FF8204600F05DF82577206850
:1016A0000169C943C90617D4C168C943C90613D41F
:1016B0006FF010010161082020772068C06910F4E4
:1016C000407F204602D0FFF791FF04E000F042F88F
:1016D000204600F040F8257720680169C943C90712
:1016E00008D1C168C943C90704D1891E01612046D8
:1016F00000F032F820680169C943090609D4C168BD
:10170000C943090605D46FF0800101612046FFF747
:1017100071FE20680169C943490609D4C168C943FB
:10172000490605D46FF040010161204600F015F82C
:1017300020680169C94389060BD4C168C943890679
:1017400007D46FF0200101612046BDE87040FFF72B
:1017500052BE70BD704770477047704770B5040047
:1017600004D094F83900002510B106E0012070BDC6
:1017700084F83850204600F023F8242084F83900FB
:101780002068C16821F40051C160204600F0FAFAD7
:101790002068016921F4904101612068416921F0CC
:1017A0002A0141612068C16841F40051C160E563CC
:1017B000202084F8390084F83A00002070BD000031
:1017C00030B585B00024009401940294039400681D
:1017D0001449884223D11448C16941F40031C161E0
:1017E000C16901F400310491816941F00401816112
:1017F00080690E4D00F00400049004200090022047
:1018000001900320039069462846FEF785FF0820D3
:10181000CDE90004694628460294FEF77DFF05B035
:1018200030BD0000004400400010024000080140AC
:10183000FEE701684A69D24352050CD46FF4806216
:101840004A6104210164002140F8301F20224273C4
:10185000017301207047002070470000F8B504466E
:10186000C06A1E460D461746042807D0012805D039
:1018700010F5803F02D0206B122804D12068016847
:1018800041F480710160134600224FF0011120469F
:10189000009600F054F8A0B92069B0F5804F12D03E
:1018A0000620216800EAD51040F0F00008613346B8
:1018B0003A460E49204600F073F838B1206C0428EF
:1018C00011D00320F8BD05F0FE0000E0E8B2216869
:1018D0000861064933463A46891F204600F060F801
:1018E0000028EBD1F8BD0120F8BD00000800010080
:1018F00070B516460D4604461AE02046FFF799FFDC
:1019000008B1012070BD681C12D025B1FEF7F0FFB0
:10191000801BA8420CD954F8400F40F0200044F836
:10192000100900202060202161732073032070BD06
:1019300020684069C0434007DFD4002070BD2DE916
:10194000F0471E4690460D460446C1F30747DDF8B2
:10195000209012E0701C10D02EB1FEF7C9FFA0EB52
:101960000900B04209D9002044F8300F20216173EA
:10197000A07320730320BDE8F0872068012F0AD0F0
:10198000806925EA00000004000C06D000214145D2
:10199000E0D00020EFE74069F3E70121F7E700001E
:1019A0002DE9F0479A4691460D46044600264FF031
:1019B0002008C1F307472AE020684069C04340057A
:1019C00012D42068016841F40071016021686FF44D
:1019D0008060486104202064266384F83D8084F898
:1019E0003C600120BDE8F087B9F1FF3F0FD0B9F1AD
:1019F000000F05D0FEF77CFFA0EB0A01494506D990
:101A000044F8306F84F80D8026730320EAE72068DD
:101A1000012F07D0D0F8180025EA00000004000CC0
:101A2000E0D0C9E74069F7E770B516460D460446B1
:101A30001AE02046FFF7FDFE08B1012070BD681CCA
:101A400012D025B1FEF754FF801BA8420CD954F8E0
:101A5000400F40F0200044F81009002020602021B1
:101A600061732073032070BD20684069C043000685
:101A7000DFD4002070BD00003EB500240D48009466
:101A8000019402948460C4600949446101600125A5
:101A900005614FF460214460C161FEF75FFC0420E2
:101AA000CDE90005694602940248FEF7D5FB3EBD2C
:101AB00000240140480000202DE9F04186B00024B8
:101AC00028480094019402940394816941F0100124
:101AD0008161816901F010010491816941F0200167
:101AE0008161816901F020010491816941F0040163
:101AF0008161816901F004010491816941F008016B
:101B000081618069184F00F008004FF4005504907F
:101B1000002229463846FEF7E6FEDFF85080002214
:101B200001214046FEF7DFFE0095022601250396BF
:101B3000CDE9015469463846FEF7EEFD2020CDE997
:101B4000000469460A480294FEF7E6FD03960095F4
:101B5000CDE9015469464046FEF7DEFD06B0BDE81A
:101B6000F08100000010024000100140000C014014
:101B70000008014010B58CB024216846FEF7D9FA60
:101B80000024124809944FF080410A94C0E90014DF
:101B90004FF6FF71C0E90241046184610320CDE981
:101BA00000040120CDE902040494CDE90540079426
:101BB000694606480894FFF747FC099409A90348B9
:101BC0000A94FFF719FC0CB010BD0000CC000020F7
:101BD00010B58CB024216846FEF7ABFA00241248F9
:101BE000099410490A94C0E900140421C0E9024193
:101BF000046184610320CDE900040120CDE90204E1
:101C00000494CDE905400794694607480894FFF716
:101C10001BFC099409A904480A94FFF7EDFB0CB0DA
:101C200010BD0000000400400C010020FEE77047DA
:101C30000907090E002806DA00F00F0000F1E02085
:101C400080F8141D704700F1E02080F80014704700
:101C500070477047FEF7BCBF30B593B02821684687
:101C6000FEF767FA14210AA8FEF763FA00240120A0
:101C70000F94022504900095102011940590109463
:101C8000129407946846FFF71FFA0F20CDE90A0463
:101C90000C940D9400210AA80E94FFF709F90FA8DF
:101CA0000F951194FFF78EF813B030BD0D48016801
:101CB00041F00101016041680B4A11404160016837
:101CC0000A4A11400160016821F4802101604168E5
:101CD00021F4FE0141604FF41F0181600449C003FB
:101CE00008607047001002400000FFF8FFFFF6FE9A
:101CF00008ED00E00148FFF77ABC00000C0100206D
:101D0000F0B50268164B174C174D4FF080479842BC
:101D100005D0B84203D0A04201D0A84203D122F09E
:101D200070064A683243984205D0B84203D0A042B8
:101D300001D0A84203D122F44074CA68224322F0A1
:101D400080044A69224302608A68C2620A68826229
:101D5000984201D10969016301214161F0BD000090
:101D6000002C0140000400400008004010B5012391
:101D7000046A8B409C430462036A8A4013430362F3
:101D800010BD00002DE9F041044600680169E268D9
:101D900021F44051114301612169A0680843616940
:101DA00008432168CA6841F20C639A430243CA603F
:101DB00020684169A26921F44071114341614C4995
:101DC00020686425322688423CD1FFF737F900EBC2
:101DD000C00101EB001061688900B0FBF1F7FFF76B
:101DE0002DF900EBC00101EB00106168B0468900DD
:101DF000B0FBF1F0B0FBF5F06FF01801484307EBD2
:101E0000800106EB0110B0FBF5F000F0F006FFF7E3
:101E100015F900EBC00101EB001061688900B0FB0F
:101E2000F1F0B0FBF5F006EB0016FFF707F900EB59
:101E3000C00101EB001061688900B0FBF1F7FFF70A
:101E4000FDF83BE0FFF7EAF800EBC00101EB001002
:101E500061688900B0FBF1F7FFF7E0F800EBC00123
:101E600001EB00106168B0468900B0FBF1F0B0FBF7
:101E7000F5F06FF01801484307EB800106EB011005
:101E8000B0FBF5F000F0F006FFF7C8F800EBC0017A
:101E900001EB001061688900B0FBF1F0B0FBF5F0D8
:101EA00006EB0016FFF7BAF800EBC00101EB0010DB
:101EB00061688900B0FBF1F7FFF7B0F800EBC001F3
:101EC00001EB001061688900B0FBF1F0B0FBF5F0A8
:101ED0006FF01801484307EB800108EB0110B0FBDD
:101EE000F5F0216800F00F0030448860BDE8F08113
:101EF00000380140FEE700000FB4084B10B504A9FC
:101F000002AA039800F01CF8044602A9002000F081
:101F1000C1F8204610BC5DF814FB000095200008B5
:101F200002E008C8121F08C1002AFAD170477047A2
:101F3000002001E001C1121F002AFBD17047000000
:101F40002DE9FF4F89B09B460446002506E0252871
:101F50000BD05A460B999047641C6D1C20780028C2
:101F6000F5D10DB02846BDE8F08F0027B846012214
:101F7000474900E0074314F8013F203B02FA03F011
:101F80000842F7D120782E2819D114F8010F47F014
:101F900004072A280ED06FF02F022078A0F130011C
:101FA00009290CD808EB880102EB410100EB01087C
:101FB000641CF2E70A98641C50F8048B0A9020789D
:101FC0000028CED0642808D0692806D075281ED0F5
:101FD0005A460B9990476D1C58E00A994FF00A0930
:101FE00001C90A91002802DA40422D2102E0390598
:101FF00004D52B218DF82010012103E0F90704D02E
:102000002021F7E78A4608AE0DE00021FAE70A9999
:102010004FF00A0901C90A91F7E74946FEF794F81B
:10202000303106F8011D0028F7D1ADEB060000F1B4
:102030002009780701D44FF00108C84502DDA8EB5C
:10204000090000E000208046002706E008A85A4664
:10205000C05D0B9990476D1C7F1C5745F6DB04E073
:1020600030205A460B9990476D1CB8F10001A8F139
:102070000108F5DC05E016F8010B5A460B9990476C
:102080006D1CB9F10001A9F10109F4DC641C65E7DC
:10209000092801000A68531C0B601070704700008B
:1020A00010B500F038F90021012000F029F954A002
:1020B00000F09EF96420FEF71DFB0021012000F0D6
:1020C0001FF96420FEF716FB51A000F091F90021E2
:1020D000012000F015F96420FEF70CFB50A000F081
:1020E00087F90021012000F00BF96420FEF702FBC4
:1020F0004BA000F07DF90021012000F001F96420DF
:10210000FEF7F8FA4AA000F073F90021012000F070
:10211000F7F86420FEF7EEFA49A000F069F9002113
:10212000012000F0EDF86420FEF7E4FA48A000F08A
:102130005FF90021012000F0E3F86420FEF7DAFAED
:1021400047A000F055F90021012000F0D9F86420E3
:10215000FEF7D0FA46A000F04BF90021012000F074
:10216000CFF86420FEF7C6FA45A000F041F900213F
:10217000012000F0C5F86420FEF7BCFA44A000F08E
:1021800037F90021012000F0BBF86420FEF7B2FA15
:1021900043A000F02DF90021012000F0B1F86420E7
:1021A000FEF7A8FA42A000F023F90021012000F078
:1021B000A7F86420FEF79EFA41A000F019F900216B
:1021C000012000F09DF86420FEF794FA40A000F092
:1021D0000FF90021012000F093F86420FEF78AFA3D
:1021E0003FA000F005F90021022000F089F840A08E
:1021F00000F0FEF8BDE810404FF4FA70FEF77ABA2E
:10220000456C656374726F7370696E6E696E67009A
:10221000206C656374726F7370696E6E696E6700AF
:102220002020656374726F7370696E6E696E6700EB
:102230002020206374726F7370696E6E696E670020
:102240002020202074726F7370696E6E696E670053
:102250002020202020726F7370696E6E696E670097
:10226000202020202020207370696E6E696E670028
:10227000202020202020202070696E6E696E67006B
:10228000202020202020202020696E6E696E6700AB
:10229000202020202020202020206E6E696E6700E4
:1022A00020202020202020202020206E696E670022
:1022B000202020202020202020202020696E670060
:1022C000202020202020202020202020206E670099
:1022D00020202020202020202020202020206700D7
:1022E000202020202020202020202020202020000E
:1022F000424D45202D20496E6F766174696F6E00E6
:10230000012805D04031C8B240F0800000F030B85C
:102310008031C8B2FAE710B5332000F029F8322036
:1023200000F026F83220FEF7E5F9282000F020F82A
:102330003220FEF7DFF9012000F01AF83220FEF714
:10234000D9F9062000F014F83220FEF7D3F90C205A
:1023500000F00EF83220FEF7CDF9022000F008F868
:102360003220FEF7C7F9BDE810408020AFF30080AF
:102370001CB500F0F00141F00C028DF8042041F092
:10238000080100018DF8051040F00C018DF80610D1
:1023900040F008008DF8070064200090042301AA93
:1023A0004E210248FEF74AFB1CBD000078000020C9
:1023B0001CB500F0F00141F00D028DF8042041F051
:1023C000090100018DF8051040F00D018DF806108F
:1023D00040F009008DF8070064200090042301AA52
:1023E0004E210248FEF72AFB1CBD000078000020A9
:1023F00010B5044602E0641CFFF7DAFF20780028DD
:10240000F9D110BDFEF7ECFBFFF726FCFFF754FBFC
:10241000FFF7DEFBFFF7AEFB6C486B490025016060
:102420006B49C0E901154FF48041C0E90351456192
:102430008561C5610562FEF761FA64486549D4307B
:1024400001604FF4E131C0E901150C21C560C0E91C
:1024500004518561C561FFF781F9FFF70DFB5B480A
:1024600018215430FFF7A8F8584818219430FFF786
:10247000A3F8FFF715FE584E584C37074FF4FA787B
:1024800030682060796A6160012814D0022848D041
:10249000032878D004284FF000014FF0010078D0D5
:1024A000FFF72EFF4EA0FFF7A3FF00210220FFF74A
:1024B00027FF52A085E000210120FFF721FF54A053
:1024C000FFF796FF00210220FFF71AFF55A0FFF744
:1024D0008FFF3E4855A15838E268FFF70DFD0821EF
:1024E0000220FFF70DFF39485838FFF781FF01211F
:1024F0004F48FEF7F4F90120FEF7FCF83348303876
:10250000FEF77EF8314864213038FDF7E1FF2F48AF
:102510003038FDF71FFFE0602C483038FEF7D0F868
:10252000AEE700210120FFF7EBFE42A0FFF760FFBE
:1025300020214348FEF7CEF9E8B9A0683230A06008
:10254000404500DDA560214838A15838A268FFF752
:10255000D3FC00210120FFF7D3FE3AA0FFF748FF8C
:102560000D210120FFF7CCFE18485838FFF740FF37
:102570004046FEF7BFF800210220FFF7C1FE37A05A
:102580001FE000E005E000210120FFF7B9FE37A0C1
:1025900002E0FFF7B5FE39A0FFF72AFF0021022075
:1025A000FFF7AEFE1FA0FFF723FF08481FA1583812
:1025B0006268FFF7A1FC08210220FFF7A1FE034893
:1025C0005838FFF715FF5BE7005400407800002003
:1025D000A0860100004400402404004000000020C8
:1025E000506C656173652053656C656374202020B1
:1025F000202020202020202000000000202020205B
:10260000202020202020202020202020000000004A
:102610004175746F2052756E2020202020202020CC
:102620002020000053706565643A20002564000096
:10263000000C01404D616E75616C204D6F6465004A
:10264000000801405370656564205365743A20208A
:1026500020202020202020200000000050726573E0
:102660007320746F207365742000000046617374DA
:10267000202020202020202020202000536C6F7755
:1026800020202020202020202020202000000000CA
:102690000000000000000000010203040607080912
:1026A0000000000001020304C8260008000000200A
:1026B00020000000201F0008E8260008200000205D
:1026C00070050000301F000800000000000000003E
:1026D00000000000000000000100000010000000E9
:0826E0000000000000A24A0402
:04000005080000ED02
:00000001FF
