:020000040800F2
:100000004806002001010008731C0008C5170008FD
:10001000711C0008E5010008F52000080000000040
:10002000000000000000000000000000971C000815
:10003000E701000800000000951C0008991C00085A
:100040001B0100081B0100081B0100081B01000820
:100050001B0100081B0100081B0100081B01000810
:100060001B0100081B0100081B0100081B01000800
:100070001B0100081B0100081B0100081B010008F0
:100080001B0100081B0100081B0100081B010008E0
:100090001B0100081B0100081B0100081B010008D0
:1000A0001B0100081B0100081B0100081B010008C0
:1000B000391D00081B010008451D00081B01000830
:1000C0001B0100081B0100081B0100081B010008A0
:1000D0001B0100081B0100081B0100081B01000890
:1000E0001B0100081B0100081B010008DFF80CD0F1
:1000F00000F040F800480047152600084806002098
:100100000648804706480047FEE7FEE7FEE7FEE7B1
:10011000FEE7FEE7FEE7FEE7FEE7FEE7F11C00086C
:10012000ED000008D2B201E000F8012B491EFBD21D
:1001300070470022F6E710B513460A4604461946F2
:10014000FFF7F0FF204610BD30B50B4601460020FA
:100150002022012409E021FA02F59D4205D303FA89
:1001600002F5491B04FA02F52844151EA2F101020A
:10017000F1DC30BD064C074D06E0E06840F00103BD
:1001800094E8070098471034AC42F6D3FFF7B2FF6B
:10019000582700087827000870B504460068816871
:1001A000C943C9071CD1816821F00101816000F0B9
:1001B00049FA05460FE000BF00F044FA401B022850
:1001C00009D9A06A40F01000A062E06A40F0010086
:1001D000E062012070BD20688068C043C007EBD09A
:1001E000002070BDFEE77047F8B50024009490F839
:1001F00024202546012A12D0012280F824204A68B2
:100200001F23072A0DD20668776B521E02EB82026B
:1002100093409F430B6893401F43776319E002208C
:10022000F8BD06680D2A0AD2376BD21F02EB820294
:1002300093409F430B6893401F43376309E0F76A7D
:100240000D3A02EB820293409F430B6893401F4399
:10025000F7620A68072306680A2A0AD3F7680A3A87
:1002600002EB420293409F438B6893401F43F76029
:1002700008E0376902EB420293409F438B6893404A
:100280001F4337610A68102A01D0112A20D1124B6E
:1002900002689A4217D193681B0219D4936843F4F9
:1002A000000393600968102912D10C490C4A0968AF
:1002B000B1FBF2F101EB8101490000E0491E009120
:1002C0000029FBD104E0816A41F020018162012410
:1002D00080F824502046F8BD00240140140000207E
:1002E00040420F002DE9F0414FF0000704003D4669
:1002F0007ED0A06A002628B9E66284F824602046F1
:1003000000F07EF82046FFF747FFA16AC90600D437
:1003100020B1A06A40F01000A06269E0A16A21F457
:10032000885141F00201A1626268E169E3680A4311
:1003300047EA43010A43A1684FF48077B94209D0E4
:10034000012907D05FF00001D4F814C0BCF1010FFF
:1003500002D00AE03946F7E7F3B1A36A43F020037D
:10036000A362E36A43F00103E3622368D3F804C0A5
:100370002CF4694C4CEA010CC3F804C021688B686A
:10038000DFF870C003EA0C0313438B60A168B94225
:100390000BD0012909D00CE0DFF85CC0A3690CEB9D
:1003A00043330B4343F40061DFE7218A0D05A5F5D4
:1003B00080152168CB6A23F470032B43CB6221683C
:1003C00089680E4B1940914208D1E662A16A21F07A
:1003D000020141F00101A162BDE8F081A06A20F0B4
:1003E000020040F01000A062E06A40F00100E0620C
:1003F0000120F1E7FDF7E1FF00E0FFFFFE0E1FFF28
:1004000000B585B00021009101910291039100682F
:100410000E49884218D10E48816941F4007181610A
:10042000816901F400710491816941F004018161E5
:100430008069694600F004000490102000900320B9
:100440000190044800F01AF805B000BD00240140F6
:10045000001002400008014070B5044600F0F2F8B8
:100460000546601C02D004480078044400F0EAF815
:10047000401BA042FAD370BD080000202DE9F84FC0
:10048000DFF890A100220AF1040B144601274FF077
:100490000F090BF1040E00BF0B6807FA04F52B409F
:1004A000AB4274D1DFF870C14E68A6EB0C0866450C
:1004B0002BD00DDC032E34D005DC36B3012E19D041
:1004C000022E2FD11BE0112E16D0122E2AD119E0A8
:1004D000B8F5881F19D006DCB8F5803F15D0B8F5FF
:1004E000801F1FD111E0B8F5001F0ED0B8F5041F12
:1004F00018D10AE0CA6815E0CA68121D12E0CA687D
:1005000008320FE0CA680C320CE08A682AB1012A6E
:100510004FF0080203D0456104E0042202E00561C7
:1005200000E00022FF2B01D8064601E000F104069E
:100530004FEA840501D9A5F12005D6F800C009FAD3
:1005400005F82CEA080C02FA05F54CEA050CC6F889
:1005500000C04D68ED0057D5304DAE6946F001063C
:10056000AE61AD6924F0030605F0010500952C4D40
:1005700006EB050CDCF80850A6074FEA167809FAD6
:1005800008F6B543274EB04202D1002610E03BE00A
:10059000254EB04201D101260AE0244EB04201D1DD
:1005A000022605E0224EB04201D1032600E00426D7
:1005B00006FA08F62E43CCF808604D68DAF80060B9
:1005C000ED03554601D51E4300E09E432E604D6865
:1005D000DBF80060AD035D4601D51E4300E09E439D
:1005E0002E604D68DEF80060ED02754601D51E43B1
:1005F00000E09E432E604D68AD020E4D2E6801D581
:100600001E4300E09E432E60641C102CFFF444AF98
:10061000BDE8F88F000401400000111000100240F6
:100620000000014000080140000C014000100140A2
:10063000001401400C0401400AB101617047090433
:10064000FBE70000014880687047000008000020B8
:1006500070B504001BD094F83D00002520B984F843
:100660003C50204600F030F9242084F83D002068FA
:10067000016821F00101016000F016FB404A616849
:10068000914201D83F4900E03F49884201D2012010
:1006900070BD3E492368B0FBF1F159606368934235
:1006A00006D94FF4967359434FF47A73B1FBF3F1C3
:1006B0002368491C19626168914210D84900401EA4
:1006C000B0FBF1F2521CC2F30B02042A01D2042047
:1006D00022E0B0FBF1F0401CC0F30B001CE0A3686B
:1006E000CBB301EBC10202EB0116421EB2FBF6F2E4
:1006F000521C42F48042120536D06BB301EBC102AA
:1007000002EB0111401EB0FBF1F0401CC0F30B00E6
:1007100040F4804040F400402168C861D4E90701FA
:10072000084321680860D4E9031008432168886001
:10073000D4E9050108432168C8602068016841F0D8
:10074000010101602564202084F83D00256384F8C0
:100750003E50002070BD00E008E001EB4106421E63
:10076000B2FBF6F2521CC6E70120D5E701EB4101CE
:10077000401EB0FBF1F0401CC0F30B00CAE70000C4
:10078000A086010080841E0000093D0040420F0049
:100790002DE9F84F1F4690468A460446DDF828901A
:1007A000FFF750FF064694F83D0020287ED119231C
:1007B000012243492046009601F08BF800287DD1A4
:1007C00094F83C00012879D0012084F83C0020688E
:1007D0000168C90703D1016841F001010160206887
:1007E000016821F400610160212084F83D0010209F
:1007F00084F83E0000252564C4F8248067853148CC
:10080000E062608D208533464A465146204600F01E
:10081000EFFF28B1206C84F83C5004284CD00DE048
:10082000206841698069009030E0324649462046A0
:1008300001F0C4F828B1206C042838D00320BDE8AA
:10084000F88F606A411C6162216800780861608DE0
:10085000401E6085208D401E80B2208521684A6937
:10086000D24352070BD450B1606A421C62620078D6
:100870000861608D401E6085208D401E20853246B7
:100880004946204600F0FEFF0028D4D1208D0028E4
:10089000CBD154F83D0B016841F400710160202078
:1008A00004F81E09E57765770020C8E706E02068B0
:1008B000016841F4007101600120C0E70220BEE739
:1008C000020010000000FFFF10B586B0002100916B
:1008D00001910291039100680F4988421AD10F4C8F
:1008E000A06940F00800A061A069694600F0080016
:1008F0000490C0200090122001900320039008482B
:10090000FFF7BCFDE06940F40010E061E06900F42D
:100910000010049006B010BD0054004000100240CA
:10092000000C0140024881680278114481607047E0
:1009300008000020074810B5016841F0100101606F
:10094000032000F073F8002000F006F800F024F80F
:10095000002010BD0020024070B50D4D04464FF43C
:100960007A712878B1FBF0F00A490968B1FBF0F020
:1009700000F072FB48B9102C07D200222146501E0D
:1009800000F034F800206C6070BD012070BD0000E4
:1009900008000020140000200C4808B5816941F0CF
:1009A00001018161816901F001010091C16941F09A
:1009B0008051C161C06900F08050009004484168D6
:1009C00021F0E06141F00071416008BD001002407B
:1009D0000000014000F01F02012191404009800009
:1009E00000F1E020C0F8001170470000F0B40E4B99
:1009F0001B680C46C3F30223C3F10705042D00D97D
:100A00000425191D072901D2002300E0DB1E012661
:100A100006FA05F1491E214099409E40761E164077
:100A20003143F0BC01F026B90CED00E0064900F0BE
:100A3000070208684FF6FF03184040EA0220034A05
:100A400010430860704700000CED00E00000FA055C
:100A50002DE9F84305460078354CC00754D0E069CD
:100A60000026C00008D4E06940F08050E061E069F1
:100A7000012600F0805000902E480168C90512D46C
:100A80000168804641F480710160FFF7DBFD074695
:100A900005E000BFFFF7D6FDC01B642823D8D8F8B7
:100AA0000000C005F6D5206A10F4407021D0A98856
:100AB00001F4407181421CD0206A1F49012220F4B8
:100AC00040700A6000220A602062C00711D0FFF760
:100AD000B9FD074641F2883808E000BFFFF7B2FDD4
:100AE000C11B414502D90320BDE8F883206A800775
:100AF000F4D5206A696820F44070084320621EB172
:100B0000E06920F08050E0612878800705D56068B2
:100B1000A96820F44040084360602878C00605D5E5
:100B20006068E96820F48000084360600020DBE72B
:100B30000010024000700040400442422DE9F0479E
:100B4000DFF8548105460E46D8F8000000F0070093
:100B5000B0420CD2D8F8001021F007013143C8F898
:100B60000010D8F8000000F00700B0426FD12868EC
:100B70004A4C810712D5400703D5606840F4E06015
:100B800060602878000703D5606840F460506060BA
:100B90006068A96820F0F000084360602878C0070A
:100BA00044D06868012816D02168022816D0890729
:100BB00000294CDA616821F0030101436160FFF70D
:100BC00041FD6968074641F2883001290ED00229AB
:100BD000814618D026E021688903E9E78901E7E723
:100BE000FFF730FDC11B494501D918E08146606817
:100BF000C0F381000128F3D118E000BFFFF722FD08
:100C0000C11B49450BD86068C0F381000228F5D1AB
:100C10000CE000BFFFF716FDC11B494502D90320B8
:100C2000BDE8F087606810F00C0FF3D1D8F8001021
:100C3000404601F00701B1420BD9016821F00701DC
:100C400031430160006800F00700B04201D001208C
:100C5000E6E72878400705D56068E96820F4E06099
:100C6000084360602878000706D56068296920F489
:100C7000605040EAC100606000F036F86168084AE0
:100C8000C1F30311515CC840064908600020FFF71A
:100C900063FE0020C4E70000002002400010024074
:100CA00040270008140000200448054900684968EE
:100CB000044AC1F30221515CC8407047140000206F
:100CC00000100240502700080448054900684968A0
:100CD000044AC1F3C221515CC8407047140000208F
:100CE000001002405027000812A185B00FC98DE8FE
:100CF0000F0014A0144A006804905168134801F0D2
:100D00000C03042B10D0082B0ED1C1F38343C9036D
:100D10001DF803000AD5516804AAC1F34041515C93
:100D20000A4A5043B0FBF1F005B070470849484308
:100D3000FAE7000002030405060708090A0B0C0D78
:100D40000E0F1010010200000010024000127A0085
:100D500000093D002DE9F84F04460078B94DC00761
:100D600048D06868C0F38100012807D06868C0F3E4
:100D70008100022809D16868C00306D5286880036D
:100D800038D5606800286FD034E06068B0F5803FE7
:100D90000BD010B1B0F5A02F11D0286820F480300E
:100DA0002860286820F4802002E0286840F4803021
:100DB0002860606888B1FFF745FC064609E02868AE
:100DC00040F480202860F0E7FFF73CFC801B64289B
:100DD00075D828688003F7D50CE0FFF733FC06468A
:100DE00005E000BFFFF72EFC801B6428F0D82868C0
:100DF0008003F7D42078944E80074FF001094FF01C
:100E000000083BD5686810F00C0F07D06868C0F385
:100E10008100022809D16868C00306D428688007C9
:100E200014D5206901281FD110E02069B0B1C6F89F
:100E30000090FFF707FC074605E000BFFFF702FC44
:100E4000C01B0228C4D828688007F7D528686169C4
:100E500020F0F80040EAC10028600FE0C6F80080EA
:100E6000FFF7F0FB074606E0E9E000BFFFF7EAFB0B
:100E7000C01B022823D828688007F7D420780007F1
:100E80002CD57248A169D9B1C0F80090FFF7DAFB00
:100E9000074604E0FFF7D6FBC01B02280FD8686A9C
:100EA0008007F7D56A484FF4FA510068B0FBF1F0BB
:100EB000009000BF0098411E0091FAD20EE080E041
:100EC000C0F80080FFF7BEFB074604E0FFF7BAFB5F
:100ED000C01B022875D8686A8007F7D420784007BD
:100EE00060D5E8690027C00008D4E86940F0805068
:100EF000E861E869012700F08050009055480168DA
:100F0000C90513D40168834641F480710160FFF77D
:100F100099FB824606E000BFFFF794FBA0EB0A00B6
:100F200064284ED8DBF80000C005F5D5E06801283C
:100F30000AD008B1052813D0286A20F001002862E1
:100F4000286A20F0040002E0286A40F001002862CC
:100F5000E06841F2883B98B1FFF774FB82460BE0F2
:100F6000286A40F004002862EEE700BFFFF76AFB42
:100F7000A0EB0A0159455AD8286A8007F6D50CE03B
:100F8000FFF760FB824605E0FFF75CFBA0EB0A0180
:100F900059454CD8286A8007F6D41FB1E86920F07B
:100FA0008050E861E06988B36968C1F38101022972
:100FB00045D00228C6F8608004D0FFF743FB044602
:100FC00038E034E0FFF73EFB074604E0FFF73AFB6A
:100FD000C01B02282BD828688001F7D4206AB0F5FE
:100FE000803F05D16868A16820F40030084368603C
:100FF000D4E908010843696821F474110843686062
:10100000C6F86090FFF71EFB044606E015E000BF3F
:10101000FFF718FB001B022809D828688001F7D5C4
:101020000BE000BFFFF70EFB001B022802D90320D4
:10103000BDE8F88F28688001F4D40020F8E701208B
:10104000F6E70000001002400000424280044242E5
:10105000140000200070004010B5401EB0F1807FE9
:1010600001D3012010BD4FF0E02460610F21601713
:1010700000F000FE0020A06107202061002010BDCC
:101080007047704730B590F83C20012A20D00122EB
:1010900080F83C20022380F83D3003685C6824F02F
:1010A00070045C6003685C680D682C435C600368D6
:1010B0009C6824F080049C6003689C6849680C4329
:1010C0009C6080F83D20002180F83C10084630BD2F
:1010D000022030BD10B5040003D094F83D0010B1DB
:1010E00007E0012010BD002084F83C00204600F0FD
:1010F0000DF8022084F83D00211D206800F028FE34
:10110000012084F83D00002010BD000008B50068F3
:101110000B49884212D10B48C16941F00401C161F9
:10112000C069002200F00400009011461E20FFF765
:101130005DFCBDE808401E20FFF74CBC08BD000068
:10114000000800400010024070B5044690F83C00D2
:10115000012817D0012584F83C50022084F83D0076
:101160002068826822F0770222F47F428260086859
:10117000502837D00DDC202859D005DC88B3102842
:1011800041D151E0022070BD302853D040283AD1DF
:101190003FE060282ED070280BD0B0F5805F03D0E0
:1011A000B0F5005F2FD110E02068816821F00701C1
:1011B00015E0CB68D1E90121206800F00AFE216822
:1011C000886840F0770088601DE0CB68D1E9012194
:1011D000206800F0FEFD2068816841F48041816054
:1011E00011E01EE0CA684968206800F0A7FE50219F
:1011F000206806E0CA684968206800F0B0FE6021F7
:10120000206800F0F0FD84F83D50002084F83C0098
:1012100070BDCA684968206800F090FE40212068CF
:10122000EFE700212068ECE710212068E9E72021A2
:101230002068E6E730212068E3E72DE9F0410D461C
:10124000040003D094F83D0018B108E00120BDE887
:10125000F081002084F83C00204600F039F802209C
:1012600084F83D002068816821F007018160211D1C
:10127000206800F06DFD226890689169166A2B68FD
:10128000AF69034340F20330814341EA0721A86874
:10129000EF6908434FF6FC418843E96840EA0720BC
:1012A000014328692F6A000140EA07300843696852
:1012B0006D6926F0AA0646EA05152943936022685F
:1012C000906120680162012084F83D000020BEE7A3
:1012D00030B585B0002500950195029503952D4BFD
:1012E00002682D492D489A4217D18A6942F400625A
:1012F0008A618A6902F4006204928A6942F00402F7
:101300008A61896901F0040104914FF440710091F0
:101310006946FFF7B3F805B030BDB2F1804FFAD19E
:10132000CA6942F00102CA61CA6902F0010204926C
:101330008A6942F004028A618A6902F00402049216
:101340008A6942F008028A618969012401F0080172
:1013500004914FF40041009102946946FFF78EF822
:101360000820CDE90005694602940D48FFF786F88C
:101370000C48416821F4407141F0E06141F4807112
:101380004160002211461C20FFF730FB1C20FFF7B4
:1013900021FBC0E7002C0140001002400008014082
:1013A000000C01400000014010B50446006891B1F6
:1013B000042904D00122002100F000FD2068012250
:1013C0005FF0040100F0FAFC2068016841F00101BF
:1013D0000160002010BD01220021F3E7704770B5C5
:1013E0000446006801694FF00005C943890715D418
:1013F000C168C943890711D4E91E01610120207722
:10140000206880698007204602D0FFF7E7FF04E0EC
:1014100000F0BEF8204600F069F9257720680169E0
:10142000C943490717D4C168C943490713D46FF0AA
:1014300004010161022020772068806910F4407F58
:10144000204602D0FFF7CAFF04E000F0A1F82046D2
:1014500000F04CF9257720680169C943090716D4C3
:10146000C168C943090712D46FF008010161042063
:1014700020772068C0698007204602D0FFF7AEFFC2
:1014800004E000F085F8204600F030F92577206868
:101490000169C943C90617D4C168C943C90613D431
:1014A0006FF010010161082020772068C06910F4F6
:1014B000407F204602D0FFF791FF04E000F068F87B
:1014C000204600F013F9257720680169C943C90750
:1014D00008D1C168C943C90704D1891E01612046EA
:1014E00000F005F920680169C943090609D4C168FB
:1014F000C943090605D46FF0800101612046FFF75A
:10150000BFFD20680169C943490609D4C168C943C0
:10151000490605D46FF040010161204600F0E8F86B
:1015200020680169C94389060BD4C168C94389068B
:1015300007D46FF0200101612046BDE87040FFF73D
:10154000A0BD70BD00B585B0002100910191029150
:10155000039100680B49884211D10B48816941F021
:10156000080181618069694600F00800049001204B
:1015700000900220019003900448FEF77FFF05B021
:1015800000BD00000004004000100240000C0140BB
:10159000704770B5044690F83C000D4601280DD008
:1015A000012684F83C60022084F83D0042B1042A00
:1015B00018D0082A2AD00C2A4DD139E0022070BD5B
:1015C000206800F019FC2068816941F00801816100
:1015D0002068816921F004018161206881692A699C
:1015E000114311E0206800F02FFC2068816941F46C
:1015F000006181612068816921F4806181612068D6
:1016000081692A6941EA0221816124E0206800F0B1
:1016100047FC2068C16941F00801C1612068C169C7
:1016200021F00401C1612068C1692A69114311E0F8
:10163000206800F061FC2068C16941F40061C1616B
:101640002068C16921F48061C1612068C1692A698B
:1016500041EA0221C16184F83D60002084F83C0029
:1016600070BD10B5040003D094F83D0010B107E040
:10167000012010BD002084F83C00204600F00CF84A
:10168000022084F83D00211D206800F061FB01204C
:1016900084F83D00002010BD00B585B00021009108
:1016A00001910291039100680D49884216D10D48BD
:1016B000C16941F00201C161C16901F002010491F7
:1016C000816941F0040181618069694600F004008C
:1016D0000490C02000900448FEF7D0FE05B000BD85
:1016E00000040040001002400008014070477047AD
:1016F000704770B5040004D094F83900002510B18B
:1017000006E0012070BD84F83850204600F022F831
:10171000242084F839002068C16821F40051C16098
:10172000204600F02FFC2068016921F490410161FE
:101730002068416921F02A0141612068C16841F4B3
:101740000051C160E563202084F8390084F83A0034
:10175000002070BD30B585B000240094019402943F
:10176000039400681449884223D11448C16941F4A4
:101770000031C161C16901F400310491816941F016
:101780000401816180690E4D00F004000490042082
:101790000090022001900320039069462846FEF73E
:1017A0006DFE0820CDE90004694628460294FEF744
:1017B00065FE05B030BD000000440040001002404E
:1017C00000080140FEE701684A69D24352050CD483
:1017D0006FF480624A6104210164002140F8301FE7
:1017E00020224273017301207047002070470000DF
:1017F000F8B50446C06A1E460D461746042807D0B1
:10180000012805D010F5803F02D0206B122804D1AA
:101810002068016841F480710160134600224FF096
:1018200001112046009600F054F8A0B92069B0F5E7
:10183000804F12D00620216800EAD51040F0F00059
:10184000086133463A460E49204600F073F838B135
:10185000206C042811D00320F8BD05F0FE0000E044
:10186000E8B221680861064933463A46891F204696
:1018700000F060F80028EBD1F8BD0120F8BD0000B1
:101880000800010070B516460D4604461AE02046D1
:10189000FFF799FF08B1012070BD681C12D025B177
:1018A000FEF7D0FE801BA8420CD954F8400F40F040
:1018B000200044F81009002020602021617320736B
:1018C000032070BD20684069C0434007DFD400207A
:1018D00070BD2DE9F0471E4690460D460446C1F303
:1018E0000747DDF8209012E0701C10D02EB1FEF7F3
:1018F000A9FEA0EB0900B04209D9002044F8300F3E
:1019000020216173A07320730320BDE8F087206855
:10191000012F0AD0806925EA00000004000C06D0DF
:1019200000214145E0D00020EFE74069F3E70121C5
:10193000F7E700002DE9F0479A4691460D46044628
:1019400000264FF02008C1F307472AE020684069CD
:10195000C043400512D42068016841F40071016061
:1019600021686FF48060486104202064266384F855
:101970003D8084F83C600120BDE8F087B9F1FF3F6D
:101980000FD0B9F1000F05D0FEF75CFEA0EB0A0105
:10199000494506D944F8306F84F80D80267303203A
:1019A000EAE72068012F07D0D0F8180025EA0000E8
:1019B0000004000CE0D0C9E74069F7E770B51646AF
:1019C0000D4604461AE02046FFF7FDFE08B101204F
:1019D00070BD681C12D025B1FEF734FE801BA842F2
:1019E0000CD954F8400F40F0200044F810090020B2
:1019F0002060202161732073032070BD206840693E
:101A0000C0430006DFD4002070BD00003EB50024B6
:101A10000D480094019402948460C46009494461B3
:101A20000160012505614FF460214460C161FEF74A
:101A300059FC0420CDE90005694602940248FEF7EE
:101A4000D3FB3EBD002401408400002070B586B069
:101A5000002420480094019402940394816941F089
:101A600010018161816901F010010491816941F0E7
:101A700020018161816901F020010491816941F0B7
:101A800004018161816901F004010491816941F0DF
:101A9000080181618069104E00F008004FF4005584
:101AA0000490002229463046FEF7C6FD012000952D
:101AB000CDE901040220039069463046FEF7DEFCC2
:101AC0002020CDE90004694604480294FEF7D6FCC4
:101AD00006B070BD00100240001001400008014037
:101AE00010B58CB024216846FEF723FB0024124871
:101AF000099410490A9401600421C0E90114C460EA
:101B00000461446184610120CDE90004CDE902044F
:101B10000494CDE905400794694607480894FFF707
:101B20008CFB099409A904480A94FFF7ABFA0CB09E
:101B300010BD0000002C01400801002010B58CB041
:101B400024216846FEF7F5FA0024124809944FF064
:101B500080410A9401600121C0E901144FF6FF722F
:101B6000C0E9032484610220CDE90010CDE902140C
:101B7000CDE90440CDE906140F20089069460548D8
:101B8000FFF75BFB099409A902480A94FFF77AFA68
:101B90000CB010BD4801002010B592B02421684659
:101BA000FEF7C7FA002410941C2109A81194FEF72F
:101BB000C0FA1948174901600521C0E9011443F62C
:101BC0009821C0E903148461FFF74BFD0120CDE9A2
:101BD00000040F21CDE902040491CDE905400794EA
:101BE00069460D480894FFF728FB109410A90A488D
:101BF0001194FFF747FA6020CDE909040B940822FD
:101C000009A905480D94FFF7C4FC0348FFF79AFCA7
:101C100012B010BD000400408801002010B586B04D
:101C200000241248009401940294039404940E49F1
:101C3000059401604FF4E151C0E901146421C0E949
:101C4000031480218161FFF745FA4FF48050009022
:101C500069460648FFF778FA049404A903480594F6
:101C6000FFF710FA06B010BD00080040C8010020C0
:101C7000FEE770470907090E002806DA00F00F009A
:101C800000F1E02080F8141D704700F1E02080F89A
:101C90000014704770477047FEF744BE30B593B0EC
:101CA00028216846FEF745FA14210AA8FEF741FAF2
:101CB000002401200F940225049000951020119417
:101CC00005901094129407946846FFF743F80F208C
:101CD000CDE90A040C940D9400210AA80E94FEF795
:101CE0002DFF0FA80F951194FEF7B2FE13B030BD73
:101CF0000D48016841F00101016041680B4A114043
:101D0000416001680A4A11400160016821F48021A4
:101D10000160416821F4FE0141604FF41F018160C0
:101D20000449C00308607047001002400000FFF83B
:101D3000FFFFF6FE08ED00E00148FFF750BB000092
:101D4000480100200148FFF74ABB0000C8010020FD
:101D5000F0B50268164B174C174D4FF0804798426C
:101D600005D0B84203D0A04201D0A84203D122F04E
:101D700070064A683243984205D0B84203D0A04268
:101D800001D0A84203D122F44074CA68224322F051
:101D900080044A69224302608A68C2620A688262D9
:101DA000984201D10969016301214161F0BD000040
:101DB000002C0140000400400008004010B5012341
:101DC000046A8B409C430462036A8A4013430362A3
:101DD00010BD10B5846842EA032224F47F440A430C
:101DE0002243826010BD826822F070020A4342F0F2
:101DF000070181607047000030B5026A22F00102DD
:101E00000262026A4368846924F073050C682C43FB
:101E100022F002058A682A430A4DA8420BD122F01B
:101E20000805CA6823F440732A434D6922F004026E
:101E30001D438B692B43436084614968416302629F
:101E400030BD0000002C014030B5026A22F01002C3
:101E50000262026A436884690D6824F4E64444EA35
:101E600005248D6822F0200242EA05120B4DA8429B
:101E70000ED1CD6822F0800242EA05124D6923F4AA
:101E8000406343EA85038D6922F0400243EA8503FB
:101E90004360846149688163026230BD002C014067
:101EA00030B5026A22F480720262036A4268C46931
:101EB00023F4007324F073050C682C438D6843EA07
:101EC00005230C4DA8420ED1CD6823F4006343EAEC
:101ED00005234D6922F4405242EA05128D6923F42C
:101EE000806342EA05124260C4614968C1630362CB
:101EF00030BD0000002C014030B5026A22F480524F
:101F00000262046A4268C3690D6823F4E64343EA47
:101F100005238D6824F4005444EA0534064DA84294
:101F200004D14D6922F4804242EA85124260C361C5
:101F300049680164046230BD002C014010B5036A99
:101F4000046A24F001040462846924F0F00444EA81
:101F5000021423F00A020A438461026210BD10B524
:101F6000036A23F0100303628369046A23F4704355
:101F700043EA023224F0A00343EA011182610162C4
:101F800010BD00002DE9F041044600680169E268D7
:101F900021F44051114301612169A068084361693E
:101FA00008432168CA6841F20C639A430243CA603D
:101FB00020684169A26921F44071114341614C4993
:101FC00020686425322688423CD1FEF77DFE00EB76
:101FD000C00101EB001061688900B0FBF1F7FEF76A
:101FE00073FE00EBC00101EB00106168B046890090
:101FF000B0FBF1F0B0FBF5F06FF01801484307EBD0
:10200000800106EB0110B0FBF5F000F0F006FEF7E2
:102010005BFE00EBC00101EB001061688900B0FBC2
:10202000F1F0B0FBF5F006EB0016FEF74DFE00EB0D
:10203000C00101EB001061688900B0FBF1F7FEF709
:1020400043FE3BE0FEF730FE00EBC00101EB001069
:1020500061688900B0FBF1F7FEF726FE00EBC001D6
:1020600001EB00106168B0468900B0FBF1F0B0FBF5
:10207000F5F06FF01801484307EB800106EB011003
:10208000B0FBF5F000F0F006FEF70EFE00EBC0012D
:1020900001EB001061688900B0FBF1F0B0FBF5F0D6
:1020A00006EB0016FEF700FE00EBC00101EB00108E
:1020B00061688900B0FBF1F7FEF7F6FD00EBC001A7
:1020C00001EB001061688900B0FBF1F0B0FBF5F0A6
:1020D0006FF01801484307EB800108EB0110B0FBDB
:1020E000F5F0216800F00F0030448860BDE8F08111
:1020F00000380140FEE700000FB4084B10B504A9FA
:1021000002AA039800F01CF8044602A9002000F07F
:10211000C1F8204610BC5DF814FB000095220008B1
:1021200002E008C8121F08C1002AFAD170477047A0
:10213000002001E001C1121F002AFBD170470000FE
:102140002DE9FF4F89B09B460446002506E025286F
:102150000BD05A460B999047641C6D1C20780028C0
:10216000F5D10DB02846BDE8F08F0027B846012212
:10217000474900E0074314F8013F203B02FA03F00F
:102180000842F7D120782E2819D114F8010F47F012
:1021900004072A280ED06FF02F022078A0F130011A
:1021A00009290CD808EB880102EB410100EB01087A
:1021B000641CF2E70A98641C50F8048B0A9020789B
:1021C0000028CED0642808D0692806D075281ED0F3
:1021D0005A460B9990476D1C58E00A994FF00A092E
:1021E00001C90A91002802DA40422D2102E0390596
:1021F00004D52B218DF82010012103E0F90704D02C
:102200002021F7E78A4608AE0DE00021FAE70A9997
:102210004FF00A0901C90A91F7E74946FDF794FF13
:10222000303106F8011D0028F7D1ADEB060000F1B2
:102230002009780701D44FF00108C84502DDA8EB5A
:10224000090000E000208046002706E008A85A4662
:10225000C05D0B9990476D1C7F1C5745F6DB04E071
:1022600030205A460B9990476D1CB8F10001A8F137
:102270000108F5DC05E016F8010B5A460B9990476A
:102280006D1CB9F10001A9F10109F4DC641C65E7DA
:10229000092801000A68531C0B6010707047000089
:1022A00010B500F040F90021012000F031F958A0EC
:1022B00000F0A6F96420FEF7CFF80021012000F01D
:1022C00027F96420FEF7C8F855A000F099F900211D
:1022D000012000F01DF96420FEF7BEF854A000F0C4
:1022E0008FF90021012000F013F96420FEF7B4F803
:1022F0004FA000F085F90021012000F009F96420C9
:10230000FEF7AAF84EA000F07BF90021012000F0B2
:10231000FFF86420FEF7A0F84DA000F071F900214D
:10232000012000F0F5F86420FEF796F84CA000F0CC
:1023300067F90021012000F0EBF86420FEF78CF82B
:102340004BA000F05DF90021012000F0E1F86420CD
:10235000FEF782F84AA000F053F90021012000F0B6
:10236000D7F86420FEF778F849A000F049F9002179
:10237000012000F0CDF86420FEF76EF848A000F0D0
:102380003FF90021012000F0C3F86420FEF764F853
:1023900047A000F035F90021012000F0B9F86420D1
:1023A000FEF75AF846A000F02BF90021012000F0BA
:1023B000AFF86420FEF750F845A000F021F90021A5
:1023C000012000F0A5F86420FEF746F844A000F0D4
:1023D00017F90021012000F09BF86420FEF73CF87B
:1023E00043A000F00DF90021022000F091F844A074
:1023F00000F006F94FF4FA70FEF72EF800210220E3
:1024000000F086F8BDE8104039A000F0F9B80000EF
:10241000456C656374726F7370696E6E696E670088
:10242000206C656374726F7370696E6E696E67009D
:102430002020656374726F7370696E6E696E6700D9
:102440002020206374726F7370696E6E696E67000E
:102450002020202074726F7370696E6E696E670041
:102460002020202020726F7370696E6E696E670085
:10247000202020202020207370696E6E696E670016
:10248000202020202020202070696E6E696E670059
:10249000202020202020202020696E6E696E670099
:1024A000202020202020202020206E6E696E6700D2
:1024B00020202020202020202020206E696E670010
:1024C000202020202020202020202020696E67004E
:1024D000202020202020202020202020206E670087
:1024E00020202020202020202020202020206700C5
:1024F00020202020202020202020202020202000FC
:10250000424D45202D20496E6F766174696F6E00D3
:10251000012805D04031C8B240F0800000F030B84A
:102520008031C8B2FAE710B5332000F029F8322024
:1025300000F026F83220FDF78FFF282000F020F869
:102540003220FDF789FF012000F01AF83220FDF754
:1025500083FF062000F014F83220FDF77DFF0C20E9
:1025600000F00EF83220FDF777FF022000F008F8A7
:102570003220FDF771FFBDE810408020AFF30080EE
:102580001CB500F0F00141F00C028DF8042041F080
:10259000080100018DF8051040F00C018DF80610BF
:1025A00040F008008DF8070064200090042301AA81
:1025B0004E210248FEF7ECF81CBD0000B4000020DC
:1025C0001CB500F0F00141F00D028DF8042041F03F
:1025D000090100018DF8051040F00D018DF806107D
:1025E00040F009008DF8070064200090042301AA40
:1025F0004E210248FEF7CCF81CBD0000B4000020BC
:1026000010B5044602E0641CFFF7DAFF20780028CA
:10261000F9D110BDFEF78EF9FFF740FBFFF716FA70
:10262000FFF78CFA3A483949002401603949C0E97A
:1026300001144FF48041C0E9034144618461C461E5
:102640000462FEF705F83548334901604FF4E13183
:10265000C0E901140C21C460C0E904418461C46173
:10266000FFF747F8FFF7D2F9FFF7D8FAFFF738FA84
:10267000FFF792FA294818214038FEF795FE2448C2
:1026800018219430FEF790FE244818218038FEF778
:102690008BFE1F4818215430FEF786FEFFF700FE20
:1026A0001B4D204E1E4C9C3D3707206868603068EB
:1026B0002060786A606000210120FFF729FF1AA0DE
:1026C000FFF79EFF12481AA180382268FFF714FD19
:1026D0000A210120FFF71CFF0D488038FFF790FF0B
:1026E00000210220FFF714FF12A0FFF789FF08481E
:1026F0000FA180386268FFF7FFFC0A210220FFF774
:1027000007FF03485838FFF77BFFCEE7005400402F
:10271000B4000020A0860100004400400802002010
:1027200000000020240400405365742052756E00A0
:10273000256400005265616C2053706565643A0041
:102740000000000000000000010203040607080961
:1027500000000000010203047827000800000020A8
:102760001800000020210008902700081800002011
:1027700030060000302100080000000000000000CA
:1027800001000000100000000000000000A24A0448
:04000005080000ED02
:00000001FF
